{
  "_format": "hh-sol-artifact-1",
  "contractName": "APIConsumer",
  "sourceName": "contracts/Lock.sol",
  "abi": [
    {
      "inputs": [],
      "stateMutability": "nonpayable",
      "type": "constructor"
    },
    {
      "anonymous": false,
      "inputs": [
        {
          "indexed": true,
          "internalType": "bytes32",
          "name": "id",
          "type": "bytes32"
        }
      ],
      "name": "ChainlinkCancelled",
      "type": "event"
    },
    {
      "anonymous": false,
      "inputs": [
        {
          "indexed": true,
          "internalType": "bytes32",
          "name": "id",
          "type": "bytes32"
        }
      ],
      "name": "ChainlinkFulfilled",
      "type": "event"
    },
    {
      "anonymous": false,
      "inputs": [
        {
          "indexed": true,
          "internalType": "bytes32",
          "name": "id",
          "type": "bytes32"
        }
      ],
      "name": "ChainlinkRequested",
      "type": "event"
    },
    {
      "anonymous": false,
      "inputs": [
        {
          "indexed": true,
          "internalType": "address",
          "name": "from",
          "type": "address"
        },
        {
          "indexed": true,
          "internalType": "address",
          "name": "to",
          "type": "address"
        }
      ],
      "name": "OwnershipTransferRequested",
      "type": "event"
    },
    {
      "anonymous": false,
      "inputs": [
        {
          "indexed": true,
          "internalType": "address",
          "name": "from",
          "type": "address"
        },
        {
          "indexed": true,
          "internalType": "address",
          "name": "to",
          "type": "address"
        }
      ],
      "name": "OwnershipTransferred",
      "type": "event"
    },
    {
      "anonymous": false,
      "inputs": [
        {
          "indexed": true,
          "internalType": "bytes32",
          "name": "requestId",
          "type": "bytes32"
        },
        {
          "indexed": false,
          "internalType": "uint256",
          "name": "volume",
          "type": "uint256"
        }
      ],
      "name": "RequestVolume",
      "type": "event"
    },
    {
      "inputs": [],
      "name": "acceptOwnership",
      "outputs": [],
      "stateMutability": "nonpayable",
      "type": "function"
    },
    {
      "inputs": [
        {
          "internalType": "uint256",
          "name": "num1",
          "type": "uint256"
        },
        {
          "internalType": "uint256",
          "name": "num2",
          "type": "uint256"
        }
      ],
      "name": "add",
      "outputs": [
        {
          "internalType": "uint256",
          "name": "",
          "type": "uint256"
        }
      ],
      "stateMutability": "pure",
      "type": "function"
    },
    {
      "inputs": [
        {
          "internalType": "bytes32",
          "name": "_requestId",
          "type": "bytes32"
        },
        {
          "internalType": "uint256",
          "name": "_volume",
          "type": "uint256"
        }
      ],
      "name": "fulfill",
      "outputs": [],
      "stateMutability": "nonpayable",
      "type": "function"
    },
    {
      "inputs": [],
      "name": "owner",
      "outputs": [
        {
          "internalType": "address",
          "name": "",
          "type": "address"
        }
      ],
      "stateMutability": "view",
      "type": "function"
    },
    {
      "inputs": [],
      "name": "requestVolumeData",
      "outputs": [
        {
          "internalType": "bytes32",
          "name": "requestId",
          "type": "bytes32"
        }
      ],
      "stateMutability": "nonpayable",
      "type": "function"
    },
    {
      "inputs": [
        {
          "internalType": "address",
          "name": "to",
          "type": "address"
        }
      ],
      "name": "transferOwnership",
      "outputs": [],
      "stateMutability": "nonpayable",
      "type": "function"
    },
    {
      "inputs": [],
      "name": "volume",
      "outputs": [
        {
          "internalType": "uint256",
          "name": "",
          "type": "uint256"
        }
      ],
      "stateMutability": "view",
      "type": "function"
    },
    {
      "inputs": [],
      "name": "withdrawLink",
      "outputs": [],
      "stateMutability": "nonpayable",
      "type": "function"
    }
  ],
  "bytecode": "0x608060405260016004553480156200001657600080fd5b50338060008073ffffffffffffffffffffffffffffffffffffffff168273ffffffffffffffffffffffffffffffffffffffff1614156200008d576040517f08c379a00000000000000000000000000000000000000000000000000000000081526004016200008490620003c2565b60405180910390fd5b81600660006101000a81548173ffffffffffffffffffffffffffffffffffffffff021916908373ffffffffffffffffffffffffffffffffffffffff160217905550600073ffffffffffffffffffffffffffffffffffffffff168173ffffffffffffffffffffffffffffffffffffffff161462000115576200011481620001ba60201b60201c565b5b5050506200013d73779877a7b0d9e8603169ddbd7836e478b4624789620002ec60201b60201c565b62000162736090149792daaee9d1d568c9f9a6f6b46aa29efd6200033060201b60201c565b7f6361393833363663633733313439353762386330313263373266303561656562600981905550600a670de0b6b3a76400006001620001a291906200044f565b620001ae919062000417565b600a819055506200056a565b3373ffffffffffffffffffffffffffffffffffffffff168173ffffffffffffffffffffffffffffffffffffffff1614156200022c576040517f08c379a00000000000000000000000000000000000000000000000000000000081526004016200022390620003e4565b60405180910390fd5b80600760006101000a81548173ffffffffffffffffffffffffffffffffffffffff021916908373ffffffffffffffffffffffffffffffffffffffff1602179055508073ffffffffffffffffffffffffffffffffffffffff16600660009054906101000a900473ffffffffffffffffffffffffffffffffffffffff1673ffffffffffffffffffffffffffffffffffffffff167fed8889f560326eb138920d842192f0eb3dd22b4f139c87a2c57538e05bae127860405160405180910390a350565b80600260006101000a81548173ffffffffffffffffffffffffffffffffffffffff021916908373ffffffffffffffffffffffffffffffffffffffff16021790555050565b80600360006101000a81548173ffffffffffffffffffffffffffffffffffffffff021916908373ffffffffffffffffffffffffffffffffffffffff16021790555050565b60006200038360188362000406565b9150620003908262000518565b602082019050919050565b6000620003aa60178362000406565b9150620003b78262000541565b602082019050919050565b60006020820190508181036000830152620003dd8162000374565b9050919050565b60006020820190508181036000830152620003ff816200039b565b9050919050565b600082825260208201905092915050565b60006200042482620004b0565b91506200043183620004b0565b925082620004445762000443620004e9565b5b828204905092915050565b60006200045c82620004b0565b91506200046983620004b0565b9250817fffffffffffffffffffffffffffffffffffffffffffffffffffffffffffffffff0483118215151615620004a557620004a4620004ba565b5b828202905092915050565b6000819050919050565b7f4e487b7100000000000000000000000000000000000000000000000000000000600052601160045260246000fd5b7f4e487b7100000000000000000000000000000000000000000000000000000000600052601260045260246000fd5b7f43616e6e6f7420736574206f776e657220746f207a65726f0000000000000000600082015250565b7f43616e6e6f74207472616e7366657220746f2073656c66000000000000000000600082015250565b61200c806200057a6000396000f3fe608060405234801561001057600080fd5b50600436106100885760003560e01c80638da5cb5b1161005b5780638da5cb5b146101015780638dc654a21461011f578063c618a1e414610129578063f2fde38b1461014757610088565b80634357855e1461008d5780636021abac146100a9578063771602f7146100c757806379ba5097146100f7575b600080fd5b6100a760048036038101906100a291906114b0565b610163565b005b6100b16102ac565b6040516100be9190611805565b60405180910390f35b6100e160048036038101906100dc919061151d565b610410565b6040516100ee91906118e0565b60405180910390f35b6100ff610426565b005b6101096105bd565b60405161011691906116fe565b60405180910390f35b6101276105e7565b005b610131610752565b60405161013e91906118e0565b60405180910390f35b610161600480360381019061015c9190611456565b610758565b005b816005600082815260200190815260200160002060009054906101000a900473ffffffffffffffffffffffffffffffffffffffff1673ffffffffffffffffffffffffffffffffffffffff163373ffffffffffffffffffffffffffffffffffffffff1614610205576040517f08c379a00000000000000000000000000000000000000000000000000000000081526004016101fc906118c0565b60405180910390fd5b6005600082815260200190815260200160002060006101000a81549073ffffffffffffffffffffffffffffffffffffffff0219169055807f7cc135e0cebb02c3480ae5d74d377283180a2601f8f644edf7987b009316c63a60405160405180910390a2827f673b38182859a514d734bdfcb49d3a05c4a641dec9311d9894c9717bcb79af768360405161029891906118e0565b60405180910390a281600881905550505050565b6000806102c360095430634357855e60e01b61076c565b90506103276040518060400160405280600381526020017f6765740000000000000000000000000000000000000000000000000000000000815250604051806080016040528060498152602001611f8e604991398361079d9092919063ffffffff16565b6103a66040518060400160405280600481526020017f70617468000000000000000000000000000000000000000000000000000000008152506040518060400160405280601881526020017f5241572c4554482c5553442c564f4c554d453234484f555200000000000000008152508361079d9092919063ffffffff16565b6000670de0b6b3a764000090506103fd6040518060400160405280600581526020017f74696d657300000000000000000000000000000000000000000000000000000081525082846107d09092919063ffffffff16565b61040982600a54610803565b9250505090565b6000818361041e9190611928565b905092915050565b600760009054906101000a900473ffffffffffffffffffffffffffffffffffffffff1673ffffffffffffffffffffffffffffffffffffffff163373ffffffffffffffffffffffffffffffffffffffff16146104b6576040517f08c379a00000000000000000000000000000000000000000000000000000000081526004016104ad90611820565b60405180910390fd5b6000600660009054906101000a900473ffffffffffffffffffffffffffffffffffffffff16905033600660006101000a81548173ffffffffffffffffffffffffffffffffffffffff021916908373ffffffffffffffffffffffffffffffffffffffff1602179055506000600760006101000a81548173ffffffffffffffffffffffffffffffffffffffff021916908373ffffffffffffffffffffffffffffffffffffffff1602179055503373ffffffffffffffffffffffffffffffffffffffff168173ffffffffffffffffffffffffffffffffffffffff167f8be0079c531659141344cd1fd0a4f28419497f9722a3daafe3b4186f6b6457e060405160405180910390a350565b6000600660009054906101000a900473ffffffffffffffffffffffffffffffffffffffff16905090565b6105ef61083a565b60006105f96108cc565b90508073ffffffffffffffffffffffffffffffffffffffff1663a9059cbb338373ffffffffffffffffffffffffffffffffffffffff166370a08231306040518263ffffffff1660e01b815260040161065191906116fe565b60206040518083038186803b15801561066957600080fd5b505afa15801561067d573d6000803e3d6000fd5b505050506040513d601f19601f820116820180604052508101906106a191906114f0565b6040518363ffffffff1660e01b81526004016106be929190611719565b602060405180830381600087803b1580156106d857600080fd5b505af11580156106ec573d6000803e3d6000fd5b505050506040513d601f19601f820116820180604052508101906107109190611483565b61074f576040517f08c379a000000000000000000000000000000000000000000000000000000000815260040161074690611880565b60405180910390fd5b50565b60085481565b61076061083a565b610769816108f6565b50565b610774611366565b61077c611366565b61079385858584610a25909392919063ffffffff16565b9150509392505050565b6107b4828460800151610ad590919063ffffffff16565b6107cb818460800151610ad590919063ffffffff16565b505050565b6107e7828460800151610ad590919063ffffffff16565b6107fe818460800151610afa90919063ffffffff16565b505050565b6000610832600360009054906101000a900473ffffffffffffffffffffffffffffffffffffffff168484610ba7565b905092915050565b600660009054906101000a900473ffffffffffffffffffffffffffffffffffffffff1673ffffffffffffffffffffffffffffffffffffffff163373ffffffffffffffffffffffffffffffffffffffff16146108ca576040517f08c379a00000000000000000000000000000000000000000000000000000000081526004016108c190611860565b60405180910390fd5b565b6000600260009054906101000a900473ffffffffffffffffffffffffffffffffffffffff16905090565b3373ffffffffffffffffffffffffffffffffffffffff168173ffffffffffffffffffffffffffffffffffffffff161415610965576040517f08c379a000000000000000000000000000000000000000000000000000000000815260040161095c906118a0565b60405180910390fd5b80600760006101000a81548173ffffffffffffffffffffffffffffffffffffffff021916908373ffffffffffffffffffffffffffffffffffffffff1602179055508073ffffffffffffffffffffffffffffffffffffffff16600660009054906101000a900473ffffffffffffffffffffffffffffffffffffffff1673ffffffffffffffffffffffffffffffffffffffff167fed8889f560326eb138920d842192f0eb3dd22b4f139c87a2c57538e05bae127860405160405180910390a350565b610a2d611366565b610a3d8560800151610100610c73565b508385600001818152505082856020019073ffffffffffffffffffffffffffffffffffffffff16908173ffffffffffffffffffffffffffffffffffffffff16815250508185604001907bffffffffffffffffffffffffffffffffffffffffffffffffffffffff191690817bffffffffffffffffffffffffffffffffffffffffffffffffffffffff191681525050849050949350505050565b610ae28260038351610cdd565b610af58183610e6290919063ffffffff16565b505050565b7fffffffffffffffffffffffffffffffffffffffffffffffff0000000000000000811215610b3157610b2c8282610e84565b610ba3565b67ffffffffffffffff811315610b5057610b4b8282610efb565b610ba2565b60008112610b6957610b6482600083610cdd565b610ba1565b610ba0826001837fffffffffffffffffffffffffffffffffffffffffffffffffffffffffffffffff610b9b9190611b49565b610cdd565b5b5b5b5050565b6000806004549050600181610bbc9190611928565b6004819055506000634042994660e01b60008087600001513089604001518760018c6080015160000151604051602401610bfd989796959493929190611742565b604051602081830303815290604052907bffffffffffffffffffffffffffffffffffffffffffffffffffffffff19166020820180517bffffffffffffffffffffffffffffffffffffffffffffffffffffffff83818316178352505050509050610c6886838684610f47565b925050509392505050565b610c7b6113d3565b6000602083610c8a9190611d30565b14610cb657602082610c9c9190611d30565b6020610ca89190611bdd565b82610cb39190611928565b91505b81836020018181525050604051808452600081528281016020016040525082905092915050565b60178167ffffffffffffffff1611610d1457610d0e8160058460ff16901b60ff1617846110eb90919063ffffffff16565b50610e5d565b60ff8167ffffffffffffffff1611610d6a57610d43601860058460ff16901b17846110eb90919063ffffffff16565b50610d648167ffffffffffffffff1660018561110b9092919063ffffffff16565b50610e5c565b61ffff8167ffffffffffffffff1611610dc157610d9a601960058460ff16901b17846110eb90919063ffffffff16565b50610dbb8167ffffffffffffffff1660028561110b9092919063ffffffff16565b50610e5b565b63ffffffff8167ffffffffffffffff1611610e1a57610df3601a60058460ff16901b17846110eb90919063ffffffff16565b50610e148167ffffffffffffffff1660048561110b9092919063ffffffff16565b50610e5a565b610e37601b60058460ff16901b17846110eb90919063ffffffff16565b50610e588167ffffffffffffffff1660088561110b9092919063ffffffff16565b505b5b5b5b505050565b610e6a6113d3565b610e7c8384600001515184855161112d565b905092915050565b610ea260036005600660ff16901b17836110eb90919063ffffffff16565b50610ef782827fffffffffffffffffffffffffffffffffffffffffffffffffffffffffffffffff610ed39190611b49565b604051602001610ee391906118e0565b60405160208183030381529060405261121c565b5050565b610f1960026005600660ff16901b17836110eb90919063ffffffff16565b50610f438282604051602001610f2f91906118e0565b60405160208183030381529060405261121c565b5050565b60003084604051602001610f5c9291906116d2565b604051602081830303815290604052805190602001209050846005600083815260200190815260200160002060006101000a81548173ffffffffffffffffffffffffffffffffffffffff021916908373ffffffffffffffffffffffffffffffffffffffff160217905550807fb5e6e01e79f91267dc17b4e6314d5d4d03593d2ceee0fbb452b750bd70ea5af960405160405180910390a2600260009054906101000a900473ffffffffffffffffffffffffffffffffffffffff1673ffffffffffffffffffffffffffffffffffffffff16634000aea08685856040518463ffffffff1660e01b8152600401611052939291906117c7565b602060405180830381600087803b15801561106c57600080fd5b505af1158015611080573d6000803e3d6000fd5b505050506040513d601f19601f820116820180604052508101906110a49190611483565b6110e3576040517f08c379a00000000000000000000000000000000000000000000000000000000081526004016110da90611840565b60405180910390fd5b949350505050565b6110f36113d3565b6111038384600001515184611241565b905092915050565b6111136113d3565b611124848560000151518585611298565b90509392505050565b6111356113d3565b825182111561114357600080fd5b846020015182856111549190611928565b111561118957611188856002611179886020015188876111749190611928565b611326565b6111839190611aef565b611342565b5b6000808651805187602083010193508088870111156111a85787860182525b60208701925050505b602084106111ef57805182526020826111ca9190611928565b91506020816111d99190611928565b90506020846111e89190611bdd565b93506111b1565b60006001856020036101000a03905080198251168184511681811785525050508692505050949350505050565b6112298260028351610cdd565b61123c8183610e6290919063ffffffff16565b505050565b6112496113d3565b8360200151831061126f5761126e84600286602001516112699190611aef565b611342565b5b835180516020858301018481538186141561128b576001820183525b5050508390509392505050565b6112a06113d3565b846020015184836112b19190611928565b11156112d9576112d885600286856112c99190611928565b6112d39190611aef565b611342565b5b60006001836101006112eb91906119d1565b6112f59190611bdd565b905085518386820101858319825116178152815185880111156113185784870182525b505085915050949350505050565b6000818311156113385782905061133c565b8190505b92915050565b6000826000015190506113558383610c73565b506113608382610e62565b50505050565b6040518060a0016040528060008019168152602001600073ffffffffffffffffffffffffffffffffffffffff16815260200160007bffffffffffffffffffffffffffffffffffffffffffffffffffffffff19168152602001600081526020016113cd6113d3565b81525090565b604051806040016040528060608152602001600081525090565b6000813590506113fc81611f31565b92915050565b60008151905061141181611f48565b92915050565b60008135905061142681611f5f565b92915050565b60008135905061143b81611f76565b92915050565b60008151905061145081611f76565b92915050565b60006020828403121561146c5761146b611dbf565b5b600061147a848285016113ed565b91505092915050565b60006020828403121561149957611498611dbf565b5b60006114a784828501611402565b91505092915050565b600080604083850312156114c7576114c6611dbf565b5b60006114d585828601611417565b92505060206114e68582860161142c565b9150509250929050565b60006020828403121561150657611505611dbf565b5b600061151484828501611441565b91505092915050565b6000806040838503121561153457611533611dbf565b5b60006115428582860161142c565b92505060206115538582860161142c565b9150509250929050565b61156681611c11565b82525050565b61157581611c2f565b82525050565b61158481611c39565b82525050565b6000611595826118fb565b61159f8185611906565b93506115af818560208601611ccf565b6115b881611dc4565b840191505092915050565b6115d46115cf82611c99565b611d02565b82525050565b60006115e7601683611917565b91506115f282611def565b602082019050919050565b600061160a602383611917565b915061161582611e18565b604082019050919050565b600061162d601683611917565b915061163882611e67565b602082019050919050565b6000611650601283611917565b915061165b82611e90565b602082019050919050565b6000611673601783611917565b915061167e82611eb9565b602082019050919050565b6000611696602883611917565b91506116a182611ee2565b604082019050919050565b6116b581611c8f565b82525050565b6116cc6116c782611c8f565b611d26565b82525050565b60006116de82856115c3565b6014820191506116ee82846116bb565b6020820191508190509392505050565b6000602082019050611713600083018461155d565b92915050565b600060408201905061172e600083018561155d565b61173b60208301846116ac565b9392505050565b600061010082019050611758600083018b61155d565b611765602083018a6116ac565b611772604083018961156c565b61177f606083018861155d565b61178c608083018761157b565b61179960a08301866116ac565b6117a660c08301856116ac565b81810360e08301526117b8818461158a565b90509998505050505050505050565b60006060820190506117dc600083018661155d565b6117e960208301856116ac565b81810360408301526117fb818461158a565b9050949350505050565b600060208201905061181a600083018461156c565b92915050565b60006020820190508181036000830152611839816115da565b9050919050565b60006020820190508181036000830152611859816115fd565b9050919050565b6000602082019050818103600083015261187981611620565b9050919050565b6000602082019050818103600083015261189981611643565b9050919050565b600060208201905081810360008301526118b981611666565b9050919050565b600060208201905081810360008301526118d981611689565b9050919050565b60006020820190506118f560008301846116ac565b92915050565b600081519050919050565b600082825260208201905092915050565b600082825260208201905092915050565b600061193382611c8f565b915061193e83611c8f565b9250827fffffffffffffffffffffffffffffffffffffffffffffffffffffffffffffffff0382111561197357611972611d61565b5b828201905092915050565b6000808291508390505b60018511156119c8578086048111156119a4576119a3611d61565b5b60018516156119b35780820291505b80810290506119c185611de2565b9450611988565b94509492505050565b60006119dc82611c8f565b91506119e783611c8f565b9250611a147fffffffffffffffffffffffffffffffffffffffffffffffffffffffffffffffff8484611a1c565b905092915050565b600082611a2c5760019050611ae8565b81611a3a5760009050611ae8565b8160018114611a505760028114611a5a57611a89565b6001915050611ae8565b60ff841115611a6c57611a6b611d61565b5b8360020a915084821115611a8357611a82611d61565b5b50611ae8565b5060208310610133831016604e8410600b8410161715611abe5782820a905083811115611ab957611ab8611d61565b5b611ae8565b611acb848484600161197e565b92509050818404811115611ae257611ae1611d61565b5b81810290505b9392505050565b6000611afa82611c8f565b9150611b0583611c8f565b9250817fffffffffffffffffffffffffffffffffffffffffffffffffffffffffffffffff0483118215151615611b3e57611b3d611d61565b5b828202905092915050565b6000611b5482611c65565b9150611b5f83611c65565b9250827f800000000000000000000000000000000000000000000000000000000000000001821260008412151615611b9a57611b99611d61565b5b827f7fffffffffffffffffffffffffffffffffffffffffffffffffffffffffffffff018213600084121615611bd257611bd1611d61565b5b828203905092915050565b6000611be882611c8f565b9150611bf383611c8f565b925082821015611c0657611c05611d61565b5b828203905092915050565b6000611c1c82611c6f565b9050919050565b60008115159050919050565b6000819050919050565b60007fffffffff0000000000000000000000000000000000000000000000000000000082169050919050565b6000819050919050565b600073ffffffffffffffffffffffffffffffffffffffff82169050919050565b6000819050919050565b6000611ca482611cab565b9050919050565b6000611cb682611cbd565b9050919050565b6000611cc882611c6f565b9050919050565b60005b83811015611ced578082015181840152602081019050611cd2565b83811115611cfc576000848401525b50505050565b6000611d0d82611d14565b9050919050565b6000611d1f82611dd5565b9050919050565b6000819050919050565b6000611d3b82611c8f565b9150611d4683611c8f565b925082611d5657611d55611d90565b5b828206905092915050565b7f4e487b7100000000000000000000000000000000000000000000000000000000600052601160045260246000fd5b7f4e487b7100000000000000000000000000000000000000000000000000000000600052601260045260246000fd5b600080fd5b6000601f19601f8301169050919050565b60008160601b9050919050565b60008160011c9050919050565b7f4d7573742062652070726f706f736564206f776e657200000000000000000000600082015250565b7f756e61626c6520746f207472616e73666572416e6443616c6c20746f206f726160008201527f636c650000000000000000000000000000000000000000000000000000000000602082015250565b7f4f6e6c792063616c6c61626c65206279206f776e657200000000000000000000600082015250565b7f556e61626c6520746f207472616e736665720000000000000000000000000000600082015250565b7f43616e6e6f74207472616e7366657220746f2073656c66000000000000000000600082015250565b7f536f75726365206d75737420626520746865206f7261636c65206f662074686560008201527f2072657175657374000000000000000000000000000000000000000000000000602082015250565b611f3a81611c11565b8114611f4557600080fd5b50565b611f5181611c23565b8114611f5c57600080fd5b50565b611f6881611c2f565b8114611f7357600080fd5b50565b611f7f81611c8f565b8114611f8a57600080fd5b5056fe68747470733a2f2f6d696e2d6170692e63727970746f636f6d706172652e636f6d2f646174612f70726963656d756c746966756c6c3f6673796d733d455448267473796d733d555344a26469706673582212203908a420aa0bdbfd566071c991cb783b53dda2181088fabddfc230a868c4bb1a64736f6c63430008070033",
  "linkReferences": {},
  "deployedLinkReferences": {}
}