{
    "_format": "hh-sol-artifact-1",
    "contractName": "APIConsumer",
    "sourceName": "contracts/Lock.sol",
    "abi": [
        {
            "inputs": [],
            "stateMutability": "nonpayable",
            "type": "constructor"
        },
        {
            "anonymous": false,
            "inputs": [
                {
                    "indexed": true,
                    "internalType": "bytes32",
                    "name": "id",
                    "type": "bytes32"
                }
            ],
            "name": "ChainlinkCancelled",
            "type": "event"
        },
        {
            "anonymous": false,
            "inputs": [
                {
                    "indexed": true,
                    "internalType": "bytes32",
                    "name": "id",
                    "type": "bytes32"
                }
            ],
            "name": "ChainlinkFulfilled",
            "type": "event"
        },
        {
            "anonymous": false,
            "inputs": [
                {
                    "indexed": true,
                    "internalType": "bytes32",
                    "name": "id",
                    "type": "bytes32"
                }
            ],
            "name": "ChainlinkRequested",
            "type": "event"
        },
        {
            "anonymous": false,
            "inputs": [
                {
                    "indexed": true,
                    "internalType": "address",
                    "name": "from",
                    "type": "address"
                },
                {
                    "indexed": true,
                    "internalType": "address",
                    "name": "to",
                    "type": "address"
                }
            ],
            "name": "OwnershipTransferRequested",
            "type": "event"
        },
        {
            "anonymous": false,
            "inputs": [
                {
                    "indexed": true,
                    "internalType": "address",
                    "name": "from",
                    "type": "address"
                },
                {
                    "indexed": true,
                    "internalType": "address",
                    "name": "to",
                    "type": "address"
                }
            ],
            "name": "OwnershipTransferred",
            "type": "event"
        },
        {
            "anonymous": false,
            "inputs": [
                {
                    "indexed": true,
                    "internalType": "bytes32",
                    "name": "requestId",
                    "type": "bytes32"
                },
                {
                    "indexed": false,
                    "internalType": "string",
                    "name": "_test",
                    "type": "string"
                }
            ],
            "name": "RequestVolume",
            "type": "event"
        },
        {
            "anonymous": false,
            "inputs": [
                {
                    "indexed": false,
                    "internalType": "bool",
                    "name": "isValid",
                    "type": "bool"
                },
                {
                    "indexed": false,
                    "internalType": "string",
                    "name": "userInput",
                    "type": "string"
                },
                {
                    "indexed": false,
                    "internalType": "string",
                    "name": "correctAnswer",
                    "type": "string"
                }
            ],
            "name": "TeamNameValidation",
            "type": "event"
        },
        {
            "anonymous": false,
            "inputs": [
                {
                    "indexed": true,
                    "internalType": "address",
                    "name": "user",
                    "type": "address"
                },
                {
                    "indexed": false,
                    "internalType": "uint256",
                    "name": "amount",
                    "type": "uint256"
                }
            ],
            "name": "TokenDistribution",
            "type": "event"
        },
        {
            "inputs": [],
            "name": "acceptOwnership",
            "outputs": [],
            "stateMutability": "nonpayable",
            "type": "function"
        },
        {
            "inputs": [
                {
                    "internalType": "bytes32",
                    "name": "",
                    "type": "bytes32"
                }
            ],
            "name": "apiResponses",
            "outputs": [
                {
                    "internalType": "string",
                    "name": "",
                    "type": "string"
                }
            ],
            "stateMutability": "view",
            "type": "function"
        },
        {
            "inputs": [
                {
                    "internalType": "bytes32",
                    "name": "_requestId",
                    "type": "bytes32"
                },
                {
                    "internalType": "string",
                    "name": "_response",
                    "type": "string"
                }
            ],
            "name": "fulfill",
            "outputs": [],
            "stateMutability": "nonpayable",
            "type": "function"
        },
        {
            "inputs": [],
            "name": "optionAUsers",
            "outputs": [
                {
                    "internalType": "uint256",
                    "name": "",
                    "type": "uint256"
                }
            ],
            "stateMutability": "view",
            "type": "function"
        },
        {
            "inputs": [],
            "name": "optionBUsers",
            "outputs": [
                {
                    "internalType": "uint256",
                    "name": "",
                    "type": "uint256"
                }
            ],
            "stateMutability": "view",
            "type": "function"
        },
        {
            "inputs": [],
            "name": "owner",
            "outputs": [
                {
                    "internalType": "address",
                    "name": "",
                    "type": "address"
                }
            ],
            "stateMutability": "view",
            "type": "function"
        },
        {
            "inputs": [
                {
                    "internalType": "string",
                    "name": "apiUrl",
                    "type": "string"
                },
                {
                    "internalType": "string",
                    "name": "apiKey",
                    "type": "string"
                },
                {
                    "internalType": "string",
                    "name": "matchInfoValue",
                    "type": "string"
                },
                {
                    "internalType": "string",
                    "name": "path",
                    "type": "string"
                }
            ],
            "name": "requestVolumeData",
            "outputs": [
                {
                    "internalType": "bytes32",
                    "name": "requestId",
                    "type": "bytes32"
                }
            ],
            "stateMutability": "nonpayable",
            "type": "function"
        },
        {
            "inputs": [
                {
                    "internalType": "uint8",
                    "name": "choice",
                    "type": "uint8"
                },
                {
                    "internalType": "uint256",
                    "name": "betAmount",
                    "type": "uint256"
                }
            ],
            "name": "setUserSelectedTeam",
            "outputs": [],
            "stateMutability": "nonpayable",
            "type": "function"
        },
        {
            "inputs": [],
            "name": "teamNameFromAPI",
            "outputs": [
                {
                    "internalType": "string",
                    "name": "",
                    "type": "string"
                }
            ],
            "stateMutability": "view",
            "type": "function"
        },
        {
            "inputs": [],
            "name": "test",
            "outputs": [
                {
                    "internalType": "string",
                    "name": "",
                    "type": "string"
                }
            ],
            "stateMutability": "view",
            "type": "function"
        },
        {
            "inputs": [],
            "name": "totalTokens",
            "outputs": [
                {
                    "internalType": "uint256",
                    "name": "",
                    "type": "uint256"
                }
            ],
            "stateMutability": "view",
            "type": "function"
        },
        {
            "inputs": [
                {
                    "internalType": "address",
                    "name": "to",
                    "type": "address"
                }
            ],
            "name": "transferOwnership",
            "outputs": [],
            "stateMutability": "nonpayable",
            "type": "function"
        },
        {
            "inputs": [
                {
                    "internalType": "address",
                    "name": "",
                    "type": "address"
                }
            ],
            "name": "userBetOptionA",
            "outputs": [
                {
                    "internalType": "uint256",
                    "name": "",
                    "type": "uint256"
                }
            ],
            "stateMutability": "view",
            "type": "function"
        },
        {
            "inputs": [
                {
                    "internalType": "address",
                    "name": "",
                    "type": "address"
                }
            ],
            "name": "userBetOptionB",
            "outputs": [
                {
                    "internalType": "uint256",
                    "name": "",
                    "type": "uint256"
                }
            ],
            "stateMutability": "view",
            "type": "function"
        },
        {
            "inputs": [
                {
                    "internalType": "address",
                    "name": "",
                    "type": "address"
                }
            ],
            "name": "userChoices",
            "outputs": [
                {
                    "internalType": "uint8",
                    "name": "",
                    "type": "uint8"
                }
            ],
            "stateMutability": "view",
            "type": "function"
        },
        {
            "inputs": [],
            "name": "userSelectedTeamName",
            "outputs": [
                {
                    "internalType": "string",
                    "name": "",
                    "type": "string"
                }
            ],
            "stateMutability": "view",
            "type": "function"
        },
        {
            "inputs": [
                {
                    "internalType": "uint256",
                    "name": "",
                    "type": "uint256"
                }
            ],
            "name": "usersForOptionA",
            "outputs": [
                {
                    "internalType": "address",
                    "name": "",
                    "type": "address"
                }
            ],
            "stateMutability": "view",
            "type": "function"
        },
        {
            "inputs": [
                {
                    "internalType": "uint256",
                    "name": "",
                    "type": "uint256"
                }
            ],
            "name": "usersForOptionB",
            "outputs": [
                {
                    "internalType": "address",
                    "name": "",
                    "type": "address"
                }
            ],
            "stateMutability": "view",
            "type": "function"
        },
        {
            "inputs": [],
            "name": "withdrawLink",
            "outputs": [],
            "stateMutability": "nonpayable",
            "type": "function"
        }
    ],
    "bytecode": "0x60806040526001600455678ac7230489e800006014553480156200002257600080fd5b50338060008073ffffffffffffffffffffffffffffffffffffffff168273ffffffffffffffffffffffffffffffffffffffff16141562000099576040517f08c379a00000000000000000000000000000000000000000000000000000000081526004016200009090620003ce565b60405180910390fd5b81600660006101000a81548173ffffffffffffffffffffffffffffffffffffffff021916908373ffffffffffffffffffffffffffffffffffffffff160217905550600073ffffffffffffffffffffffffffffffffffffffff168173ffffffffffffffffffffffffffffffffffffffff161462000121576200012081620001c660201b60201c565b5b5050506200014973779877a7b0d9e8603169ddbd7836e478b4624789620002f860201b60201c565b6200016e736090149792daaee9d1d568c9f9a6f6b46aa29efd6200033c60201b60201c565b7f3764383061363338366566353433613361626235323831376636373037653364600981905550600a670de0b6b3a76400006001620001ae91906200045b565b620001ba919062000423565b600a8190555062000576565b3373ffffffffffffffffffffffffffffffffffffffff168173ffffffffffffffffffffffffffffffffffffffff16141562000238576040517f08c379a00000000000000000000000000000000000000000000000000000000081526004016200022f90620003f0565b60405180910390fd5b80600760006101000a81548173ffffffffffffffffffffffffffffffffffffffff021916908373ffffffffffffffffffffffffffffffffffffffff1602179055508073ffffffffffffffffffffffffffffffffffffffff16600660009054906101000a900473ffffffffffffffffffffffffffffffffffffffff1673ffffffffffffffffffffffffffffffffffffffff167fed8889f560326eb138920d842192f0eb3dd22b4f139c87a2c57538e05bae127860405160405180910390a350565b80600260006101000a81548173ffffffffffffffffffffffffffffffffffffffff021916908373ffffffffffffffffffffffffffffffffffffffff16021790555050565b80600360006101000a81548173ffffffffffffffffffffffffffffffffffffffff021916908373ffffffffffffffffffffffffffffffffffffffff16021790555050565b60006200038f60188362000412565b91506200039c8262000524565b602082019050919050565b6000620003b660178362000412565b9150620003c3826200054d565b602082019050919050565b60006020820190508181036000830152620003e98162000380565b9050919050565b600060208201905081810360008301526200040b81620003a7565b9050919050565b600082825260208201905092915050565b60006200043082620004bc565b91506200043d83620004bc565b92508262000450576200044f620004f5565b5b828204905092915050565b60006200046882620004bc565b91506200047583620004bc565b9250817fffffffffffffffffffffffffffffffffffffffffffffffffffffffffffffffff0483118215151615620004b157620004b0620004c6565b5b828202905092915050565b6000819050919050565b7f4e487b7100000000000000000000000000000000000000000000000000000000600052601160045260246000fd5b7f4e487b7100000000000000000000000000000000000000000000000000000000600052601260045260246000fd5b7f43616e6e6f7420736574206f776e657220746f207a65726f0000000000000000600082015250565b7f43616e6e6f74207472616e7366657220746f2073656c66000000000000000000600082015250565b61364e80620005866000396000f3fe608060405234801561001057600080fd5b50600436106101215760003560e01c80638558e067116100ad578063c262af5f11610071578063c262af5f146102e6578063df39cf1f14610316578063f2fde38b14610346578063f8a8fd6d14610362578063fad92c181461038057610121565b80638558e067146102545780638da5cb5b146102845780638dc654a2146102a25780639fef2258146102ac578063a229d766146102ca57610121565b806337441996116100f457806337441996146101c25780636e9ece7c146101de57806379ba5097146101fc5780637adc7127146102065780637e1c0c091461023657610121565b80631c774af2146101265780631f33d447146101565780632a38fa9e146101865780632d3c6641146101a4575b600080fd5b610140600480360381019061013b91906123d0565b6103b0565b60405161014d9190612b66565b60405180910390f35b610170600480360381019061016b9190612376565b610450565b60405161017d9190612cc3565b60405180910390f35b61018e610470565b60405161019b9190612ca8565b60405180910390f35b6101ac610476565b6040516101b99190612b66565b60405180910390f35b6101dc60048036038101906101d791906123fd565b610504565b005b6101e6610698565b6040516101f39190612ca8565b60405180910390f35b61020461069e565b005b610220600480360381019061021b9190612376565b610835565b60405161022d9190612ca8565b60405180910390f35b61023e61084d565b60405161024b9190612ca8565b60405180910390f35b61026e60048036038101906102699190612530565b610853565b60405161027b91906129ff565b60405180910390f35b61028c610892565b60405161029991906129ff565b60405180910390f35b6102aa6108bc565b005b6102b4610a27565b6040516102c19190612b66565b60405180910390f35b6102e460048036038101906102df919061258a565b610ab5565b005b61030060048036038101906102fb9190612459565b610e23565b60405161030d9190612b4b565b60405180910390f35b610330600480360381019061032b9190612376565b610f10565b60405161033d9190612ca8565b60405180910390f35b610360600480360381019061035b9190612376565b610f28565b005b61036a610f3c565b6040516103779190612b66565b60405180910390f35b61039a60048036038101906103959190612530565b610fca565b6040516103a791906129ff565b60405180910390f35b600b60205280600052604060002060009150905080546103cf90613115565b80601f01602080910402602001604051908101604052809291908181526020018280546103fb90613115565b80156104485780601f1061041d57610100808354040283529160200191610448565b820191906000526020600020905b81548152906001019060200180831161042b57829003601f168201915b505050505081565b60156020528060005260406000206000915054906101000a900460ff1681565b600f5481565b600c805461048390613115565b80601f01602080910402602001604051908101604052809291908181526020018280546104af90613115565b80156104fc5780601f106104d1576101008083540402835291602001916104fc565b820191906000526020600020905b8154815290600101906020018083116104df57829003601f168201915b505050505081565b816005600082815260200190815260200160002060009054906101000a900473ffffffffffffffffffffffffffffffffffffffff1673ffffffffffffffffffffffffffffffffffffffff163373ffffffffffffffffffffffffffffffffffffffff16146105a6576040517f08c379a000000000000000000000000000000000000000000000000000000000815260040161059d90612c48565b60405180910390fd5b6005600082815260200190815260200160002060006101000a81549073ffffffffffffffffffffffffffffffffffffffff0219169055807f7cc135e0cebb02c3480ae5d74d377283180a2601f8f644edf7987b009316c63a60405160405180910390a281600b6000858152602001908152602001600020908051906020019061063092919061215e565b50827f9ba3b568d237411b006cd782aa975fd1783097cb4198316e11a24cf10f4f3f8e836040516106619190612b66565b60405180910390a26009548314156106935781600c908051906020019061068992919061215e565b50610692611009565b5b505050565b600e5481565b600760009054906101000a900473ffffffffffffffffffffffffffffffffffffffff1673ffffffffffffffffffffffffffffffffffffffff163373ffffffffffffffffffffffffffffffffffffffff161461072e576040517f08c379a000000000000000000000000000000000000000000000000000000000815260040161072590612b88565b60405180910390fd5b6000600660009054906101000a900473ffffffffffffffffffffffffffffffffffffffff16905033600660006101000a81548173ffffffffffffffffffffffffffffffffffffffff021916908373ffffffffffffffffffffffffffffffffffffffff1602179055506000600760006101000a81548173ffffffffffffffffffffffffffffffffffffffff021916908373ffffffffffffffffffffffffffffffffffffffff1602179055503373ffffffffffffffffffffffffffffffffffffffff168173ffffffffffffffffffffffffffffffffffffffff167f8be0079c531659141344cd1fd0a4f28419497f9722a3daafe3b4186f6b6457e060405160405180910390a350565b60106020528060005260406000206000915090505481565b60145481565b6012818154811061086357600080fd5b906000526020600020016000915054906101000a900473ffffffffffffffffffffffffffffffffffffffff1681565b6000600660009054906101000a900473ffffffffffffffffffffffffffffffffffffffff16905090565b6108c46110be565b60006108ce611150565b90508073ffffffffffffffffffffffffffffffffffffffff1663a9059cbb338373ffffffffffffffffffffffffffffffffffffffff166370a08231306040518263ffffffff1660e01b815260040161092691906129ff565b60206040518083038186803b15801561093e57600080fd5b505afa158015610952573d6000803e3d6000fd5b505050506040513d601f19601f82011682018060405250810190610976919061255d565b6040518363ffffffff1660e01b8152600401610993929190612a1a565b602060405180830381600087803b1580156109ad57600080fd5b505af11580156109c1573d6000803e3d6000fd5b505050506040513d601f19601f820116820180604052508101906109e591906123a3565b610a24576040517f08c379a0000000000000000000000000000000000000000000000000000000008152600401610a1b90612c08565b60405180910390fd5b50565b600d8054610a3490613115565b80601f0160208091040260200160405190810160405280929190818152602001828054610a6090613115565b8015610aad5780601f10610a8257610100808354040283529160200191610aad565b820191906000526020600020905b815481529060010190602001808311610a9057829003601f168201915b505050505081565b6000601560003373ffffffffffffffffffffffffffffffffffffffff1673ffffffffffffffffffffffffffffffffffffffff16815260200190815260200160002060009054906101000a900460ff1660ff1614610b47576040517f08c379a0000000000000000000000000000000000000000000000000000000008152600401610b3e90612c88565b60405180910390fd5b60018260ff161415610c65576040518060400160405280600881526020017f4f7074696f6e2041000000000000000000000000000000000000000000000000815250600d9080519060200190610b9e92919061215e565b506001600e6000828254610bb29190612d8c565b925050819055506012339080600181540180825580915050600190039060005260206000200160009091909190916101000a81548173ffffffffffffffffffffffffffffffffffffffff021916908373ffffffffffffffffffffffffffffffffffffffff16021790555080601060003373ffffffffffffffffffffffffffffffffffffffff1673ffffffffffffffffffffffffffffffffffffffff16815260200190815260200160002081905550610dbf565b60028260ff161415610d83576040518060400160405280600881526020017f4f7074696f6e2042000000000000000000000000000000000000000000000000815250600d9080519060200190610cbc92919061215e565b506001600f6000828254610cd09190612d8c565b925050819055506013339080600181540180825580915050600190039060005260206000200160009091909190916101000a81548173ffffffffffffffffffffffffffffffffffffffff021916908373ffffffffffffffffffffffffffffffffffffffff16021790555080601160003373ffffffffffffffffffffffffffffffffffffffff1673ffffffffffffffffffffffffffffffffffffffff16815260200190815260200160002081905550610dbe565b6040517f08c379a0000000000000000000000000000000000000000000000000000000008152600401610db590612be8565b60405180910390fd5b5b81601560003373ffffffffffffffffffffffffffffffffffffffff1673ffffffffffffffffffffffffffffffffffffffff16815260200190815260200160002060006101000a81548160ff021916908360ff160217905550610e1f611009565b5050565b600080858585604051602001610e3b939291906129a1565b60405160208183030381529060405290506000610e6260095430633744199660e01b61117a565b9050610eae6040518060400160405280600381526020017f676574000000000000000000000000000000000000000000000000000000000081525083836111ab9092919063ffffffff16565b610ef86040518060400160405280600481526020017f706174680000000000000000000000000000000000000000000000000000000081525085836111ab9092919063ffffffff16565b610f0481600a546111de565b92505050949350505050565b60116020528060005260406000206000915090505481565b610f306110be565b610f3981611215565b50565b60088054610f4990613115565b80601f0160208091040260200160405190810160405280929190818152602001828054610f7590613115565b8015610fc25780601f10610f9757610100808354040283529160200191610fc2565b820191906000526020600020905b815481529060010190602001808311610fa557829003601f168201915b505050505081565b60138181548110610fda57600080fd5b906000526020600020016000915054906101000a900473ffffffffffffffffffffffffffffffffffffffff1681565b6000600d60405160200161101d91906129e8565b60405160208183030381529060405280519060200120600c60405160200161104591906129e8565b604051602081830303815290604052805190602001201490507f15d04850e007201f6fcf1026a4a13fcce85df304c7ff6be3dac211e007a894f281600d600c60405161109393929190612b06565b60405180910390a180156110b0576110ab6001611344565b6110bb565b6110ba6000611344565b5b50565b600660009054906101000a900473ffffffffffffffffffffffffffffffffffffffff1673ffffffffffffffffffffffffffffffffffffffff163373ffffffffffffffffffffffffffffffffffffffff161461114e576040517f08c379a000000000000000000000000000000000000000000000000000000000815260040161114590612bc8565b60405180910390fd5b565b6000600260009054906101000a900473ffffffffffffffffffffffffffffffffffffffff16905090565b6111826121e4565b61118a6121e4565b6111a185858584611887909392919063ffffffff16565b9150509392505050565b6111c282846080015161193790919063ffffffff16565b6111d981846080015161193790919063ffffffff16565b505050565b600061120d600360009054906101000a900473ffffffffffffffffffffffffffffffffffffffff16848461195c565b905092915050565b3373ffffffffffffffffffffffffffffffffffffffff168173ffffffffffffffffffffffffffffffffffffffff161415611284576040517f08c379a000000000000000000000000000000000000000000000000000000000815260040161127b90612c28565b60405180910390fd5b80600760006101000a81548173ffffffffffffffffffffffffffffffffffffffff021916908373ffffffffffffffffffffffffffffffffffffffff1602179055508073ffffffffffffffffffffffffffffffffffffffff16600660009054906101000a900473ffffffffffffffffffffffffffffffffffffffff1673ffffffffffffffffffffffffffffffffffffffff167fed8889f560326eb138920d842192f0eb3dd22b4f139c87a2c57538e05bae127860405160405180910390a350565b60008060005b6012805490508110156113f557601060006012838154811061136f5761136e6132ad565b5b9060005260206000200160009054906101000a900473ffffffffffffffffffffffffffffffffffffffff1673ffffffffffffffffffffffffffffffffffffffff1673ffffffffffffffffffffffffffffffffffffffff16815260200190815260200160002054836113e09190612d8c565b925080806113ed90613178565b91505061134a565b5060005b6013805490508110156114a457601160006013838154811061141e5761141d6132ad565b5b9060005260206000200160009054906101000a900473ffffffffffffffffffffffffffffffffffffffff1673ffffffffffffffffffffffffffffffffffffffff1673ffffffffffffffffffffffffffffffffffffffff168152602001908152602001600020548261148f9190612d8c565b9150808061149c90613178565b9150506113f9565b50600081836114b39190612d8c565b9050600081601454856114c69190612f84565b6114d09190612de2565b9050600082601454856114e39190612f84565b6114ed9190612de2565b905085156116a05760005b6012805490508110156115c75760006012828154811061151b5761151a6132ad565b5b9060005260206000200160009054906101000a900473ffffffffffffffffffffffffffffffffffffffff1690506000601060008373ffffffffffffffffffffffffffffffffffffffff1673ffffffffffffffffffffffffffffffffffffffff168152602001908152602001600020549050600088868361159b9190612f84565b6115a59190612de2565b90506115b18382611a28565b50505080806115bf90613178565b9150506114f8565b5060005b60138054905081101561169a576000601382815481106115ee576115ed6132ad565b5b9060005260206000200160009054906101000a900473ffffffffffffffffffffffffffffffffffffffff1690506000601160008373ffffffffffffffffffffffffffffffffffffffff1673ffffffffffffffffffffffffffffffffffffffff168152602001908152602001600020549050600087858361166e9190612f84565b6116789190612de2565b90506116848382611a28565b505050808061169290613178565b9150506115cb565b5061187f565b600081836014546116b19190612fde565b6116bb9190612fde565b9050600f54600e54101561179d5760005b60138054905081101561179b576000601382815481106116ef576116ee6132ad565b5b9060005260206000200160009054906101000a900473ffffffffffffffffffffffffffffffffffffffff1690506000601160008373ffffffffffffffffffffffffffffffffffffffff1673ffffffffffffffffffffffffffffffffffffffff168152602001908152602001600020549050600088858361176f9190612f84565b6117799190612de2565b90506117858382611a28565b505050808061179390613178565b9150506116cc565b505b600e54600f54101561187d5760005b60128054905081101561187b576000601282815481106117cf576117ce6132ad565b5b9060005260206000200160009054906101000a900473ffffffffffffffffffffffffffffffffffffffff1690506000601060008373ffffffffffffffffffffffffffffffffffffffff1673ffffffffffffffffffffffffffffffffffffffff168152602001908152602001600020549050600089858361184f9190612f84565b6118599190612de2565b90506118658382611a28565b505050808061187390613178565b9150506117ac565b505b505b505050505050565b61188f6121e4565b61189f8560800151610100611b53565b508385600001818152505082856020019073ffffffffffffffffffffffffffffffffffffffff16908173ffffffffffffffffffffffffffffffffffffffff16815250508185604001907bffffffffffffffffffffffffffffffffffffffffffffffffffffffff191690817bffffffffffffffffffffffffffffffffffffffffffffffffffffffff191681525050849050949350505050565b6119448260038351611bbd565b6119578183611d4290919063ffffffff16565b505050565b60008060045490506001816119719190612d8c565b6004819055506000634042994660e01b60008087600001513089604001518760018c60800151600001516040516024016119b2989796959493929190612a43565b604051602081830303815290604052907bffffffffffffffffffffffffffffffffffffffffffffffffffffffff19166020820180517bffffffffffffffffffffffffffffffffffffffffffffffffffffffff83818316178352505050509050611a1d86838684611d64565b925050509392505050565b6000611a32611150565b90508073ffffffffffffffffffffffffffffffffffffffff1663a9059cbb84846040518363ffffffff1660e01b8152600401611a6f929190612a1a565b602060405180830381600087803b158015611a8957600080fd5b505af1158015611a9d573d6000803e3d6000fd5b505050506040513d601f19601f82011682018060405250810190611ac191906123a3565b611b00576040517f08c379a0000000000000000000000000000000000000000000000000000000008152600401611af790612c68565b60405180910390fd5b8273ffffffffffffffffffffffffffffffffffffffff167f55415116040ebe4bc0f2a8c28b2e7e3e8c494a5f4316854c949b548434d35f6583604051611b469190612ca8565b60405180910390a2505050565b611b5b612251565b6000602083611b6a91906131ef565b14611b9657602082611b7c91906131ef565b6020611b889190612fde565b82611b939190612d8c565b91505b81836020018181525050604051808452600081528281016020016040525082905092915050565b60178167ffffffffffffffff1611611bf457611bee8160058460ff16901b60ff161784611f0890919063ffffffff16565b50611d3d565b60ff8167ffffffffffffffff1611611c4a57611c23601860058460ff16901b1784611f0890919063ffffffff16565b50611c448167ffffffffffffffff16600185611f289092919063ffffffff16565b50611d3c565b61ffff8167ffffffffffffffff1611611ca157611c7a601960058460ff16901b1784611f0890919063ffffffff16565b50611c9b8167ffffffffffffffff16600285611f289092919063ffffffff16565b50611d3b565b63ffffffff8167ffffffffffffffff1611611cfa57611cd3601a60058460ff16901b1784611f0890919063ffffffff16565b50611cf48167ffffffffffffffff16600485611f289092919063ffffffff16565b50611d3a565b611d17601b60058460ff16901b1784611f0890919063ffffffff16565b50611d388167ffffffffffffffff16600885611f289092919063ffffffff16565b505b5b5b5b505050565b611d4a612251565b611d5c83846000015151848551611f4a565b905092915050565b60003084604051602001611d79929190612975565b604051602081830303815290604052805190602001209050846005600083815260200190815260200160002060006101000a81548173ffffffffffffffffffffffffffffffffffffffff021916908373ffffffffffffffffffffffffffffffffffffffff160217905550807fb5e6e01e79f91267dc17b4e6314d5d4d03593d2ceee0fbb452b750bd70ea5af960405160405180910390a2600260009054906101000a900473ffffffffffffffffffffffffffffffffffffffff1673ffffffffffffffffffffffffffffffffffffffff16634000aea08685856040518463ffffffff1660e01b8152600401611e6f93929190612ac8565b602060405180830381600087803b158015611e8957600080fd5b505af1158015611e9d573d6000803e3d6000fd5b505050506040513d601f19601f82011682018060405250810190611ec191906123a3565b611f00576040517f08c379a0000000000000000000000000000000000000000000000000000000008152600401611ef790612ba8565b60405180910390fd5b949350505050565b611f10612251565b611f208384600001515184612039565b905092915050565b611f30612251565b611f41848560000151518585612090565b90509392505050565b611f52612251565b8251821115611f6057600080fd5b84602001518285611f719190612d8c565b1115611fa657611fa5856002611f9688602001518887611f919190612d8c565b61211e565b611fa09190612f84565b61213a565b5b600080865180518760208301019350808887011115611fc55787860182525b60208701925050505b6020841061200c5780518252602082611fe79190612d8c565b9150602081611ff69190612d8c565b90506020846120059190612fde565b9350611fce565b60006001856020036101000a03905080198251168184511681811785525050508692505050949350505050565b612041612251565b836020015183106120675761206684600286602001516120619190612f84565b61213a565b5b8351805160208583010184815381861415612083576001820183525b5050508390509392505050565b612098612251565b846020015184836120a99190612d8c565b11156120d1576120d085600286856120c19190612d8c565b6120cb9190612f84565b61213a565b5b60006001836101006120e39190612e66565b6120ed9190612fde565b905085518386820101858319825116178152815185880111156121105784870182525b505085915050949350505050565b60008183111561213057829050612134565b8190505b92915050565b60008260000151905061214d8383611b53565b506121588382611d42565b50505050565b82805461216a90613115565b90600052602060002090601f01602090048101928261218c57600085556121d3565b82601f106121a557805160ff19168380011785556121d3565b828001600101855582156121d3579182015b828111156121d25782518255916020019190600101906121b7565b5b5090506121e0919061226b565b5090565b6040518060a0016040528060008019168152602001600073ffffffffffffffffffffffffffffffffffffffff16815260200160007bffffffffffffffffffffffffffffffffffffffffffffffffffffffff191681526020016000815260200161224b612251565b81525090565b604051806040016040528060608152602001600081525090565b5b8082111561228457600081600090555060010161226c565b5090565b600061229b61229684612d03565b612cde565b9050828152602081018484840111156122b7576122b6613310565b5b6122c28482856130d3565b509392505050565b6000813590506122d9816135a5565b92915050565b6000815190506122ee816135bc565b92915050565b600081359050612303816135d3565b92915050565b600082601f83011261231e5761231d61330b565b5b813561232e848260208601612288565b91505092915050565b600081359050612346816135ea565b92915050565b60008151905061235b816135ea565b92915050565b60008135905061237081613601565b92915050565b60006020828403121561238c5761238b61331a565b5b600061239a848285016122ca565b91505092915050565b6000602082840312156123b9576123b861331a565b5b60006123c7848285016122df565b91505092915050565b6000602082840312156123e6576123e561331a565b5b60006123f4848285016122f4565b91505092915050565b600080604083850312156124145761241361331a565b5b6000612422858286016122f4565b925050602083013567ffffffffffffffff81111561244357612442613315565b5b61244f85828601612309565b9150509250929050565b600080600080608085870312156124735761247261331a565b5b600085013567ffffffffffffffff81111561249157612490613315565b5b61249d87828801612309565b945050602085013567ffffffffffffffff8111156124be576124bd613315565b5b6124ca87828801612309565b935050604085013567ffffffffffffffff8111156124eb576124ea613315565b5b6124f787828801612309565b925050606085013567ffffffffffffffff81111561251857612517613315565b5b61252487828801612309565b91505092959194509250565b6000602082840312156125465761254561331a565b5b600061255484828501612337565b91505092915050565b6000602082840312156125735761257261331a565b5b60006125818482850161234c565b91505092915050565b600080604083850312156125a1576125a061331a565b5b60006125af85828601612361565b92505060206125c085828601612337565b9150509250929050565b6125d381613012565b82525050565b6125e281613024565b82525050565b6125f181613030565b82525050565b6126008161303a565b82525050565b600061261182612d49565b61261b8185612d5f565b935061262b8185602086016130e2565b6126348161331f565b840191505092915050565b61265061264b8261309d565b6131c1565b82525050565b600061266182612d54565b61266b8185612d70565b935061267b8185602086016130e2565b6126848161331f565b840191505092915050565b600061269a82612d54565b6126a48185612d81565b93506126b48185602086016130e2565b80840191505092915050565b600081546126cd81613115565b6126d78186612d70565b945060018216600081146126f2576001811461270457612737565b60ff1983168652602086019350612737565b61270d85612d34565b60005b8381101561272f57815481890152600182019150602081019050612710565b808801955050505b50505092915050565b6000815461274d81613115565b6127578186612d81565b945060018216600081146127725760018114612783576127b6565b60ff198316865281860193506127b6565b61278c85612d34565b60005b838110156127ae5781548189015260018201915060208101905061278f565b838801955050505b50505092915050565b60006127cc600483612d81565b91506127d78261334a565b600482019050919050565b60006127ef601683612d70565b91506127fa82613373565b602082019050919050565b6000612812602383612d70565b915061281d8261339c565b604082019050919050565b6000612835601683612d70565b9150612840826133eb565b602082019050919050565b6000612858603f83612d70565b915061286382613414565b604082019050919050565b600061287b601783612d70565b915061288682613463565b602082019050919050565b600061289e601783612d70565b91506128a98261348c565b602082019050919050565b60006128c1602883612d70565b91506128cc826134b5565b604082019050919050565b60006128e4601983612d70565b91506128ef82613504565b602082019050919050565b6000612907602483612d70565b91506129128261352d565b604082019050919050565b600061292a600883612d81565b91506129358261357c565b600882019050919050565b61294981613086565b82525050565b61296061295b82613086565b6131e5565b82525050565b61296f81613090565b82525050565b6000612981828561263f565b601482019150612991828461294f565b6020820191508190509392505050565b60006129ad828661268f565b91506129b88261291d565b91506129c4828561268f565b91506129cf826127bf565b91506129db828461268f565b9150819050949350505050565b60006129f48284612740565b915081905092915050565b6000602082019050612a1460008301846125ca565b92915050565b6000604082019050612a2f60008301856125ca565b612a3c6020830184612940565b9392505050565b600061010082019050612a59600083018b6125ca565b612a66602083018a612940565b612a7360408301896125e8565b612a8060608301886125ca565b612a8d60808301876125f7565b612a9a60a0830186612940565b612aa760c0830185612940565b81810360e0830152612ab98184612606565b90509998505050505050505050565b6000606082019050612add60008301866125ca565b612aea6020830185612940565b8181036040830152612afc8184612606565b9050949350505050565b6000606082019050612b1b60008301866125d9565b8181036020830152612b2d81856126c0565b90508181036040830152612b4181846126c0565b9050949350505050565b6000602082019050612b6060008301846125e8565b92915050565b60006020820190508181036000830152612b808184612656565b905092915050565b60006020820190508181036000830152612ba1816127e2565b9050919050565b60006020820190508181036000830152612bc181612805565b9050919050565b60006020820190508181036000830152612be181612828565b9050919050565b60006020820190508181036000830152612c018161284b565b9050919050565b60006020820190508181036000830152612c218161286e565b9050919050565b60006020820190508181036000830152612c4181612891565b9050919050565b60006020820190508181036000830152612c61816128b4565b9050919050565b60006020820190508181036000830152612c81816128d7565b9050919050565b60006020820190508181036000830152612ca1816128fa565b9050919050565b6000602082019050612cbd6000830184612940565b92915050565b6000602082019050612cd86000830184612966565b92915050565b6000612ce8612cf9565b9050612cf48282613147565b919050565b6000604051905090565b600067ffffffffffffffff821115612d1e57612d1d6132dc565b5b612d278261331f565b9050602081019050919050565b60008190508160005260206000209050919050565b600081519050919050565b600081519050919050565b600082825260208201905092915050565b600082825260208201905092915050565b600081905092915050565b6000612d9782613086565b9150612da283613086565b9250827fffffffffffffffffffffffffffffffffffffffffffffffffffffffffffffffff03821115612dd757612dd6613220565b5b828201905092915050565b6000612ded82613086565b9150612df883613086565b925082612e0857612e0761324f565b5b828204905092915050565b6000808291508390505b6001851115612e5d57808604811115612e3957612e38613220565b5b6001851615612e485780820291505b8081029050612e568561333d565b9450612e1d565b94509492505050565b6000612e7182613086565b9150612e7c83613086565b9250612ea97fffffffffffffffffffffffffffffffffffffffffffffffffffffffffffffffff8484612eb1565b905092915050565b600082612ec15760019050612f7d565b81612ecf5760009050612f7d565b8160018114612ee55760028114612eef57612f1e565b6001915050612f7d565b60ff841115612f0157612f00613220565b5b8360020a915084821115612f1857612f17613220565b5b50612f7d565b5060208310610133831016604e8410600b8410161715612f535782820a905083811115612f4e57612f4d613220565b5b612f7d565b612f608484846001612e13565b92509050818404811115612f7757612f76613220565b5b81810290505b9392505050565b6000612f8f82613086565b9150612f9a83613086565b9250817fffffffffffffffffffffffffffffffffffffffffffffffffffffffffffffffff0483118215151615612fd357612fd2613220565b5b828202905092915050565b6000612fe982613086565b9150612ff483613086565b92508282101561300757613006613220565b5b828203905092915050565b600061301d82613066565b9050919050565b60008115159050919050565b6000819050919050565b60007fffffffff0000000000000000000000000000000000000000000000000000000082169050919050565b600073ffffffffffffffffffffffffffffffffffffffff82169050919050565b6000819050919050565b600060ff82169050919050565b60006130a8826130af565b9050919050565b60006130ba826130c1565b9050919050565b60006130cc82613066565b9050919050565b82818337600083830152505050565b60005b838110156131005780820151818401526020810190506130e5565b8381111561310f576000848401525b50505050565b6000600282049050600182168061312d57607f821691505b602082108114156131415761314061327e565b5b50919050565b6131508261331f565b810181811067ffffffffffffffff8211171561316f5761316e6132dc565b5b80604052505050565b600061318382613086565b91507fffffffffffffffffffffffffffffffffffffffffffffffffffffffffffffffff8214156131b6576131b5613220565b5b600182019050919050565b60006131cc826131d3565b9050919050565b60006131de82613330565b9050919050565b6000819050919050565b60006131fa82613086565b915061320583613086565b9250826132155761321461324f565b5b828206905092915050565b7f4e487b7100000000000000000000000000000000000000000000000000000000600052601160045260246000fd5b7f4e487b7100000000000000000000000000000000000000000000000000000000600052601260045260246000fd5b7f4e487b7100000000000000000000000000000000000000000000000000000000600052602260045260246000fd5b7f4e487b7100000000000000000000000000000000000000000000000000000000600052603260045260246000fd5b7f4e487b7100000000000000000000000000000000000000000000000000000000600052604160045260246000fd5b600080fd5b600080fd5b600080fd5b600080fd5b6000601f19601f8301169050919050565b60008160601b9050919050565b60008160011c9050919050565b7f2669643d00000000000000000000000000000000000000000000000000000000600082015250565b7f4d7573742062652070726f706f736564206f776e657200000000000000000000600082015250565b7f756e61626c6520746f207472616e73666572416e6443616c6c20746f206f726160008201527f636c650000000000000000000000000000000000000000000000000000000000602082015250565b7f4f6e6c792063616c6c61626c65206279206f776e657200000000000000000000600082015250565b7f496e76616c69642063686f6963652e20506c656173652063686f6f736520312060008201527f666f72204f7074696f6e2041206f72203220666f72204f7074696f6e20422e00602082015250565b7f556e61626c6520746f207472616e73666572204c494e4b000000000000000000600082015250565b7f43616e6e6f74207472616e7366657220746f2073656c66000000000000000000600082015250565b7f536f75726365206d75737420626520746865206f7261636c65206f662074686560008201527f2072657175657374000000000000000000000000000000000000000000000000602082015250565b7f556e61626c6520746f207472616e7366657220746f6b656e7300000000000000600082015250565b7f596f75206861766520616c72656164792073656c656374656420616e206f707460008201527f696f6e2e00000000000000000000000000000000000000000000000000000000602082015250565b7f3f6170696b65793d000000000000000000000000000000000000000000000000600082015250565b6135ae81613012565b81146135b957600080fd5b50565b6135c581613024565b81146135d057600080fd5b50565b6135dc81613030565b81146135e757600080fd5b50565b6135f381613086565b81146135fe57600080fd5b50565b61360a81613090565b811461361557600080fd5b5056fea2646970667358221220f6a655f869a56c5e641b9200a0af98ab1b6538900d717d7d60221f6d1ec4e94064736f6c63430008070033",
    "linkReferences": {},
    "deployedLinkReferences": {}
}