{
  "_format": "hh-sol-artifact-1",
  "contractName": "APIConsumer",
  "sourceName": "contracts/Lock.sol",
  "abi": [
    {
      "inputs": [],
      "stateMutability": "nonpayable",
      "type": "constructor"
    },
    {
      "anonymous": false,
      "inputs": [
        {
          "indexed": true,
          "internalType": "bytes32",
          "name": "id",
          "type": "bytes32"
        }
      ],
      "name": "ChainlinkCancelled",
      "type": "event"
    },
    {
      "anonymous": false,
      "inputs": [
        {
          "indexed": true,
          "internalType": "bytes32",
          "name": "id",
          "type": "bytes32"
        }
      ],
      "name": "ChainlinkFulfilled",
      "type": "event"
    },
    {
      "anonymous": false,
      "inputs": [
        {
          "indexed": true,
          "internalType": "bytes32",
          "name": "id",
          "type": "bytes32"
        }
      ],
      "name": "ChainlinkRequested",
      "type": "event"
    },
    {
      "anonymous": false,
      "inputs": [
        {
          "indexed": true,
          "internalType": "address",
          "name": "from",
          "type": "address"
        },
        {
          "indexed": true,
          "internalType": "address",
          "name": "to",
          "type": "address"
        }
      ],
      "name": "OwnershipTransferRequested",
      "type": "event"
    },
    {
      "anonymous": false,
      "inputs": [
        {
          "indexed": true,
          "internalType": "address",
          "name": "from",
          "type": "address"
        },
        {
          "indexed": true,
          "internalType": "address",
          "name": "to",
          "type": "address"
        }
      ],
      "name": "OwnershipTransferred",
      "type": "event"
    },
    {
      "anonymous": false,
      "inputs": [
        {
          "indexed": true,
          "internalType": "bytes32",
          "name": "requestId",
          "type": "bytes32"
        },
        {
          "indexed": false,
          "internalType": "string",
          "name": "_test",
          "type": "string"
        }
      ],
      "name": "RequestVolume",
      "type": "event"
    },
    {
      "anonymous": false,
      "inputs": [
        {
          "indexed": false,
          "internalType": "bool",
          "name": "isValid",
          "type": "bool"
        },
        {
          "indexed": false,
          "internalType": "string",
          "name": "userInput",
          "type": "string"
        },
        {
          "indexed": false,
          "internalType": "string",
          "name": "correctAnswer",
          "type": "string"
        }
      ],
      "name": "TeamNameValidation",
      "type": "event"
    },
    {
      "anonymous": false,
      "inputs": [
        {
          "indexed": true,
          "internalType": "address",
          "name": "user",
          "type": "address"
        },
        {
          "indexed": false,
          "internalType": "uint256",
          "name": "amount",
          "type": "uint256"
        }
      ],
      "name": "TokenDistribution",
      "type": "event"
    },
    {
      "inputs": [],
      "name": "acceptOwnership",
      "outputs": [],
      "stateMutability": "nonpayable",
      "type": "function"
    },
    {
      "inputs": [
        {
          "internalType": "bytes32",
          "name": "",
          "type": "bytes32"
        }
      ],
      "name": "apiResponses",
      "outputs": [
        {
          "internalType": "string",
          "name": "",
          "type": "string"
        }
      ],
      "stateMutability": "view",
      "type": "function"
    },
    {
      "inputs": [
        {
          "internalType": "bytes32",
          "name": "_requestId",
          "type": "bytes32"
        },
        {
          "internalType": "string",
          "name": "_response",
          "type": "string"
        }
      ],
      "name": "fulfill",
      "outputs": [],
      "stateMutability": "nonpayable",
      "type": "function"
    },
    {
      "inputs": [],
      "name": "optionAUsers",
      "outputs": [
        {
          "internalType": "uint256",
          "name": "",
          "type": "uint256"
        }
      ],
      "stateMutability": "view",
      "type": "function"
    },
    {
      "inputs": [],
      "name": "optionBUsers",
      "outputs": [
        {
          "internalType": "uint256",
          "name": "",
          "type": "uint256"
        }
      ],
      "stateMutability": "view",
      "type": "function"
    },
    {
      "inputs": [],
      "name": "owner",
      "outputs": [
        {
          "internalType": "address",
          "name": "",
          "type": "address"
        }
      ],
      "stateMutability": "view",
      "type": "function"
    },
    {
      "inputs": [
        {
          "internalType": "string",
          "name": "apiUrl",
          "type": "string"
        },
        {
          "internalType": "string",
          "name": "apiKey",
          "type": "string"
        },
        {
          "internalType": "string",
          "name": "matchInfoValue",
          "type": "string"
        },
        {
          "internalType": "string",
          "name": "path",
          "type": "string"
        }
      ],
      "name": "requestVolumeData",
      "outputs": [
        {
          "internalType": "bytes32",
          "name": "requestId",
          "type": "bytes32"
        }
      ],
      "stateMutability": "nonpayable",
      "type": "function"
    },
    {
      "inputs": [],
      "name": "returnInputString",
      "outputs": [
        {
          "internalType": "string",
          "name": "",
          "type": "string"
        }
      ],
      "stateMutability": "pure",
      "type": "function"
    },
    {
      "inputs": [
        {
          "internalType": "uint8",
          "name": "choice",
          "type": "uint8"
        },
        {
          "internalType": "uint256",
          "name": "betAmount",
          "type": "uint256"
        }
      ],
      "name": "setUserSelectedTeam",
      "outputs": [],
      "stateMutability": "nonpayable",
      "type": "function"
    },
    {
      "inputs": [],
      "name": "teamNameFromAPI",
      "outputs": [
        {
          "internalType": "string",
          "name": "",
          "type": "string"
        }
      ],
      "stateMutability": "view",
      "type": "function"
    },
    {
      "inputs": [],
      "name": "test",
      "outputs": [
        {
          "internalType": "string",
          "name": "",
          "type": "string"
        }
      ],
      "stateMutability": "view",
      "type": "function"
    },
    {
      "inputs": [],
      "name": "totalTokens",
      "outputs": [
        {
          "internalType": "uint256",
          "name": "",
          "type": "uint256"
        }
      ],
      "stateMutability": "view",
      "type": "function"
    },
    {
      "inputs": [
        {
          "internalType": "address",
          "name": "to",
          "type": "address"
        }
      ],
      "name": "transferOwnership",
      "outputs": [],
      "stateMutability": "nonpayable",
      "type": "function"
    },
    {
      "inputs": [
        {
          "internalType": "address",
          "name": "",
          "type": "address"
        }
      ],
      "name": "userBetOptionA",
      "outputs": [
        {
          "internalType": "uint256",
          "name": "",
          "type": "uint256"
        }
      ],
      "stateMutability": "view",
      "type": "function"
    },
    {
      "inputs": [
        {
          "internalType": "address",
          "name": "",
          "type": "address"
        }
      ],
      "name": "userBetOptionB",
      "outputs": [
        {
          "internalType": "uint256",
          "name": "",
          "type": "uint256"
        }
      ],
      "stateMutability": "view",
      "type": "function"
    },
    {
      "inputs": [
        {
          "internalType": "address",
          "name": "",
          "type": "address"
        }
      ],
      "name": "userChoices",
      "outputs": [
        {
          "internalType": "uint8",
          "name": "",
          "type": "uint8"
        }
      ],
      "stateMutability": "view",
      "type": "function"
    },
    {
      "inputs": [],
      "name": "userSelectedTeamName",
      "outputs": [
        {
          "internalType": "string",
          "name": "",
          "type": "string"
        }
      ],
      "stateMutability": "view",
      "type": "function"
    },
    {
      "inputs": [
        {
          "internalType": "uint256",
          "name": "",
          "type": "uint256"
        }
      ],
      "name": "usersForOptionA",
      "outputs": [
        {
          "internalType": "address",
          "name": "",
          "type": "address"
        }
      ],
      "stateMutability": "view",
      "type": "function"
    },
    {
      "inputs": [
        {
          "internalType": "uint256",
          "name": "",
          "type": "uint256"
        }
      ],
      "name": "usersForOptionB",
      "outputs": [
        {
          "internalType": "address",
          "name": "",
          "type": "address"
        }
      ],
      "stateMutability": "view",
      "type": "function"
    },
    {
      "inputs": [],
      "name": "withdrawLink",
      "outputs": [],
      "stateMutability": "nonpayable",
      "type": "function"
    }
  ],
  "bytecode": "0x60806040526001600455678ac7230489e800006014553480156200002257600080fd5b50338060008073ffffffffffffffffffffffffffffffffffffffff168273ffffffffffffffffffffffffffffffffffffffff16141562000099576040517f08c379a00000000000000000000000000000000000000000000000000000000081526004016200009090620003ce565b60405180910390fd5b81600660006101000a81548173ffffffffffffffffffffffffffffffffffffffff021916908373ffffffffffffffffffffffffffffffffffffffff160217905550600073ffffffffffffffffffffffffffffffffffffffff168173ffffffffffffffffffffffffffffffffffffffff161462000121576200012081620001c660201b60201c565b5b5050506200014973779877a7b0d9e8603169ddbd7836e478b4624789620002f860201b60201c565b6200016e736090149792daaee9d1d568c9f9a6f6b46aa29efd6200033c60201b60201c565b7f3764383061363338366566353433613361626235323831376636373037653364600981905550600a670de0b6b3a76400006001620001ae91906200045b565b620001ba919062000423565b600a8190555062000576565b3373ffffffffffffffffffffffffffffffffffffffff168173ffffffffffffffffffffffffffffffffffffffff16141562000238576040517f08c379a00000000000000000000000000000000000000000000000000000000081526004016200022f90620003f0565b60405180910390fd5b80600760006101000a81548173ffffffffffffffffffffffffffffffffffffffff021916908373ffffffffffffffffffffffffffffffffffffffff1602179055508073ffffffffffffffffffffffffffffffffffffffff16600660009054906101000a900473ffffffffffffffffffffffffffffffffffffffff1673ffffffffffffffffffffffffffffffffffffffff167fed8889f560326eb138920d842192f0eb3dd22b4f139c87a2c57538e05bae127860405160405180910390a350565b80600260006101000a81548173ffffffffffffffffffffffffffffffffffffffff021916908373ffffffffffffffffffffffffffffffffffffffff16021790555050565b80600360006101000a81548173ffffffffffffffffffffffffffffffffffffffff021916908373ffffffffffffffffffffffffffffffffffffffff16021790555050565b60006200038f60188362000412565b91506200039c8262000524565b602082019050919050565b6000620003b660178362000412565b9150620003c3826200054d565b602082019050919050565b60006020820190508181036000830152620003e98162000380565b9050919050565b600060208201905081810360008301526200040b81620003a7565b9050919050565b600082825260208201905092915050565b60006200043082620004bc565b91506200043d83620004bc565b92508262000450576200044f620004f5565b5b828204905092915050565b60006200046882620004bc565b91506200047583620004bc565b9250817fffffffffffffffffffffffffffffffffffffffffffffffffffffffffffffffff0483118215151615620004b157620004b0620004c6565b5b828202905092915050565b6000819050919050565b7f4e487b7100000000000000000000000000000000000000000000000000000000600052601160045260246000fd5b7f4e487b7100000000000000000000000000000000000000000000000000000000600052601260045260246000fd5b7f43616e6e6f7420736574206f776e657220746f207a65726f0000000000000000600082015250565b7f43616e6e6f74207472616e7366657220746f2073656c66000000000000000000600082015250565b6136b480620005866000396000f3fe608060405234801561001057600080fd5b506004361061012c5760003560e01c80638558e067116100ad578063c262af5f11610071578063c262af5f1461030f578063df39cf1f1461033f578063f2fde38b1461036f578063f8a8fd6d1461038b578063fad92c18146103a95761012c565b80638558e0671461027d5780638da5cb5b146102ad5780638dc654a2146102cb5780639fef2258146102d5578063a229d766146102f35761012c565b806337441996116100f457806337441996146101eb5780636e9ece7c1461020757806379ba5097146102255780637adc71271461022f5780637e1c0c091461025f5761012c565b80631c403938146101315780631c774af21461014f5780631f33d4471461017f5780632a38fa9e146101af5780632d3c6641146101cd575b600080fd5b6101396103d9565b6040516101469190612bcc565b60405180910390f35b61016960048036038101906101649190612436565b610416565b6040516101769190612bcc565b60405180910390f35b610199600480360381019061019491906123dc565b6104b6565b6040516101a69190612d29565b60405180910390f35b6101b76104d6565b6040516101c49190612d0e565b60405180910390f35b6101d56104dc565b6040516101e29190612bcc565b60405180910390f35b61020560048036038101906102009190612463565b61056a565b005b61020f6106fe565b60405161021c9190612d0e565b60405180910390f35b61022d610704565b005b610249600480360381019061024491906123dc565b61089b565b6040516102569190612d0e565b60405180910390f35b6102676108b3565b6040516102749190612d0e565b60405180910390f35b61029760048036038101906102929190612596565b6108b9565b6040516102a49190612a65565b60405180910390f35b6102b56108f8565b6040516102c29190612a65565b60405180910390f35b6102d3610922565b005b6102dd610a8d565b6040516102ea9190612bcc565b60405180910390f35b61030d600480360381019061030891906125f0565b610b1b565b005b610329600480360381019061032491906124bf565b610e89565b6040516103369190612bb1565b60405180910390f35b610359600480360381019061035491906123dc565b610f76565b6040516103669190612d0e565b60405180910390f35b610389600480360381019061038491906123dc565b610f8e565b005b610393610fa2565b6040516103a09190612bcc565b60405180910390f35b6103c360048036038101906103be9190612596565b611030565b6040516103d09190612a65565b60405180910390f35b60606040518060400160405280600581526020017f5261746869000000000000000000000000000000000000000000000000000000815250905090565b600b60205280600052604060002060009150905080546104359061317b565b80601f01602080910402602001604051908101604052809291908181526020018280546104619061317b565b80156104ae5780601f10610483576101008083540402835291602001916104ae565b820191906000526020600020905b81548152906001019060200180831161049157829003601f168201915b505050505081565b60156020528060005260406000206000915054906101000a900460ff1681565b600f5481565b600c80546104e99061317b565b80601f01602080910402602001604051908101604052809291908181526020018280546105159061317b565b80156105625780601f1061053757610100808354040283529160200191610562565b820191906000526020600020905b81548152906001019060200180831161054557829003601f168201915b505050505081565b816005600082815260200190815260200160002060009054906101000a900473ffffffffffffffffffffffffffffffffffffffff1673ffffffffffffffffffffffffffffffffffffffff163373ffffffffffffffffffffffffffffffffffffffff161461060c576040517f08c379a000000000000000000000000000000000000000000000000000000000815260040161060390612cae565b60405180910390fd5b6005600082815260200190815260200160002060006101000a81549073ffffffffffffffffffffffffffffffffffffffff0219169055807f7cc135e0cebb02c3480ae5d74d377283180a2601f8f644edf7987b009316c63a60405160405180910390a281600b600085815260200190815260200160002090805190602001906106969291906121c4565b50827f9ba3b568d237411b006cd782aa975fd1783097cb4198316e11a24cf10f4f3f8e836040516106c79190612bcc565b60405180910390a26009548314156106f95781600c90805190602001906106ef9291906121c4565b506106f861106f565b5b505050565b600e5481565b600760009054906101000a900473ffffffffffffffffffffffffffffffffffffffff1673ffffffffffffffffffffffffffffffffffffffff163373ffffffffffffffffffffffffffffffffffffffff1614610794576040517f08c379a000000000000000000000000000000000000000000000000000000000815260040161078b90612bee565b60405180910390fd5b6000600660009054906101000a900473ffffffffffffffffffffffffffffffffffffffff16905033600660006101000a81548173ffffffffffffffffffffffffffffffffffffffff021916908373ffffffffffffffffffffffffffffffffffffffff1602179055506000600760006101000a81548173ffffffffffffffffffffffffffffffffffffffff021916908373ffffffffffffffffffffffffffffffffffffffff1602179055503373ffffffffffffffffffffffffffffffffffffffff168173ffffffffffffffffffffffffffffffffffffffff167f8be0079c531659141344cd1fd0a4f28419497f9722a3daafe3b4186f6b6457e060405160405180910390a350565b60106020528060005260406000206000915090505481565b60145481565b601281815481106108c957600080fd5b906000526020600020016000915054906101000a900473ffffffffffffffffffffffffffffffffffffffff1681565b6000600660009054906101000a900473ffffffffffffffffffffffffffffffffffffffff16905090565b61092a611124565b60006109346111b6565b90508073ffffffffffffffffffffffffffffffffffffffff1663a9059cbb338373ffffffffffffffffffffffffffffffffffffffff166370a08231306040518263ffffffff1660e01b815260040161098c9190612a65565b60206040518083038186803b1580156109a457600080fd5b505afa1580156109b8573d6000803e3d6000fd5b505050506040513d601f19601f820116820180604052508101906109dc91906125c3565b6040518363ffffffff1660e01b81526004016109f9929190612a80565b602060405180830381600087803b158015610a1357600080fd5b505af1158015610a27573d6000803e3d6000fd5b505050506040513d601f19601f82011682018060405250810190610a4b9190612409565b610a8a576040517f08c379a0000000000000000000000000000000000000000000000000000000008152600401610a8190612c6e565b60405180910390fd5b50565b600d8054610a9a9061317b565b80601f0160208091040260200160405190810160405280929190818152602001828054610ac69061317b565b8015610b135780601f10610ae857610100808354040283529160200191610b13565b820191906000526020600020905b815481529060010190602001808311610af657829003601f168201915b505050505081565b6000601560003373ffffffffffffffffffffffffffffffffffffffff1673ffffffffffffffffffffffffffffffffffffffff16815260200190815260200160002060009054906101000a900460ff1660ff1614610bad576040517f08c379a0000000000000000000000000000000000000000000000000000000008152600401610ba490612cee565b60405180910390fd5b60018260ff161415610ccb576040518060400160405280600881526020017f4f7074696f6e2041000000000000000000000000000000000000000000000000815250600d9080519060200190610c049291906121c4565b506001600e6000828254610c189190612df2565b925050819055506012339080600181540180825580915050600190039060005260206000200160009091909190916101000a81548173ffffffffffffffffffffffffffffffffffffffff021916908373ffffffffffffffffffffffffffffffffffffffff16021790555080601060003373ffffffffffffffffffffffffffffffffffffffff1673ffffffffffffffffffffffffffffffffffffffff16815260200190815260200160002081905550610e25565b60028260ff161415610de9576040518060400160405280600881526020017f4f7074696f6e2042000000000000000000000000000000000000000000000000815250600d9080519060200190610d229291906121c4565b506001600f6000828254610d369190612df2565b925050819055506013339080600181540180825580915050600190039060005260206000200160009091909190916101000a81548173ffffffffffffffffffffffffffffffffffffffff021916908373ffffffffffffffffffffffffffffffffffffffff16021790555080601160003373ffffffffffffffffffffffffffffffffffffffff1673ffffffffffffffffffffffffffffffffffffffff16815260200190815260200160002081905550610e24565b6040517f08c379a0000000000000000000000000000000000000000000000000000000008152600401610e1b90612c4e565b60405180910390fd5b5b81601560003373ffffffffffffffffffffffffffffffffffffffff1673ffffffffffffffffffffffffffffffffffffffff16815260200190815260200160002060006101000a81548160ff021916908360ff160217905550610e8561106f565b5050565b600080858585604051602001610ea193929190612a07565b60405160208183030381529060405290506000610ec860095430633744199660e01b6111e0565b9050610f146040518060400160405280600381526020017f676574000000000000000000000000000000000000000000000000000000000081525083836112119092919063ffffffff16565b610f5e6040518060400160405280600481526020017f706174680000000000000000000000000000000000000000000000000000000081525085836112119092919063ffffffff16565b610f6a81600a54611244565b92505050949350505050565b60116020528060005260406000206000915090505481565b610f96611124565b610f9f8161127b565b50565b60088054610faf9061317b565b80601f0160208091040260200160405190810160405280929190818152602001828054610fdb9061317b565b80156110285780601f10610ffd57610100808354040283529160200191611028565b820191906000526020600020905b81548152906001019060200180831161100b57829003601f168201915b505050505081565b6013818154811061104057600080fd5b906000526020600020016000915054906101000a900473ffffffffffffffffffffffffffffffffffffffff1681565b6000600d6040516020016110839190612a4e565b60405160208183030381529060405280519060200120600c6040516020016110ab9190612a4e565b604051602081830303815290604052805190602001201490507f15d04850e007201f6fcf1026a4a13fcce85df304c7ff6be3dac211e007a894f281600d600c6040516110f993929190612b6c565b60405180910390a180156111165761111160016113aa565b611121565b61112060006113aa565b5b50565b600660009054906101000a900473ffffffffffffffffffffffffffffffffffffffff1673ffffffffffffffffffffffffffffffffffffffff163373ffffffffffffffffffffffffffffffffffffffff16146111b4576040517f08c379a00000000000000000000000000000000000000000000000000000000081526004016111ab90612c2e565b60405180910390fd5b565b6000600260009054906101000a900473ffffffffffffffffffffffffffffffffffffffff16905090565b6111e861224a565b6111f061224a565b611207858585846118ed909392919063ffffffff16565b9150509392505050565b61122882846080015161199d90919063ffffffff16565b61123f81846080015161199d90919063ffffffff16565b505050565b6000611273600360009054906101000a900473ffffffffffffffffffffffffffffffffffffffff1684846119c2565b905092915050565b3373ffffffffffffffffffffffffffffffffffffffff168173ffffffffffffffffffffffffffffffffffffffff1614156112ea576040517f08c379a00000000000000000000000000000000000000000000000000000000081526004016112e190612c8e565b60405180910390fd5b80600760006101000a81548173ffffffffffffffffffffffffffffffffffffffff021916908373ffffffffffffffffffffffffffffffffffffffff1602179055508073ffffffffffffffffffffffffffffffffffffffff16600660009054906101000a900473ffffffffffffffffffffffffffffffffffffffff1673ffffffffffffffffffffffffffffffffffffffff167fed8889f560326eb138920d842192f0eb3dd22b4f139c87a2c57538e05bae127860405160405180910390a350565b60008060005b60128054905081101561145b5760106000601283815481106113d5576113d4613313565b5b9060005260206000200160009054906101000a900473ffffffffffffffffffffffffffffffffffffffff1673ffffffffffffffffffffffffffffffffffffffff1673ffffffffffffffffffffffffffffffffffffffff16815260200190815260200160002054836114469190612df2565b92508080611453906131de565b9150506113b0565b5060005b60138054905081101561150a57601160006013838154811061148457611483613313565b5b9060005260206000200160009054906101000a900473ffffffffffffffffffffffffffffffffffffffff1673ffffffffffffffffffffffffffffffffffffffff1673ffffffffffffffffffffffffffffffffffffffff16815260200190815260200160002054826114f59190612df2565b91508080611502906131de565b91505061145f565b50600081836115199190612df2565b90506000816014548561152c9190612fea565b6115369190612e48565b9050600082601454856115499190612fea565b6115539190612e48565b905085156117065760005b60128054905081101561162d5760006012828154811061158157611580613313565b5b9060005260206000200160009054906101000a900473ffffffffffffffffffffffffffffffffffffffff1690506000601060008373ffffffffffffffffffffffffffffffffffffffff1673ffffffffffffffffffffffffffffffffffffffff16815260200190815260200160002054905060008886836116019190612fea565b61160b9190612e48565b90506116178382611a8e565b5050508080611625906131de565b91505061155e565b5060005b6013805490508110156117005760006013828154811061165457611653613313565b5b9060005260206000200160009054906101000a900473ffffffffffffffffffffffffffffffffffffffff1690506000601160008373ffffffffffffffffffffffffffffffffffffffff1673ffffffffffffffffffffffffffffffffffffffff16815260200190815260200160002054905060008785836116d49190612fea565b6116de9190612e48565b90506116ea8382611a8e565b50505080806116f8906131de565b915050611631565b506118e5565b600081836014546117179190613044565b6117219190613044565b9050600f54600e5410156118035760005b6013805490508110156118015760006013828154811061175557611754613313565b5b9060005260206000200160009054906101000a900473ffffffffffffffffffffffffffffffffffffffff1690506000601160008373ffffffffffffffffffffffffffffffffffffffff1673ffffffffffffffffffffffffffffffffffffffff16815260200190815260200160002054905060008885836117d59190612fea565b6117df9190612e48565b90506117eb8382611a8e565b50505080806117f9906131de565b915050611732565b505b600e54600f5410156118e35760005b6012805490508110156118e15760006012828154811061183557611834613313565b5b9060005260206000200160009054906101000a900473ffffffffffffffffffffffffffffffffffffffff1690506000601060008373ffffffffffffffffffffffffffffffffffffffff1673ffffffffffffffffffffffffffffffffffffffff16815260200190815260200160002054905060008985836118b59190612fea565b6118bf9190612e48565b90506118cb8382611a8e565b50505080806118d9906131de565b915050611812565b505b505b505050505050565b6118f561224a565b6119058560800151610100611bb9565b508385600001818152505082856020019073ffffffffffffffffffffffffffffffffffffffff16908173ffffffffffffffffffffffffffffffffffffffff16815250508185604001907bffffffffffffffffffffffffffffffffffffffffffffffffffffffff191690817bffffffffffffffffffffffffffffffffffffffffffffffffffffffff191681525050849050949350505050565b6119aa8260038351611c23565b6119bd8183611da890919063ffffffff16565b505050565b60008060045490506001816119d79190612df2565b6004819055506000634042994660e01b60008087600001513089604001518760018c6080015160000151604051602401611a18989796959493929190612aa9565b604051602081830303815290604052907bffffffffffffffffffffffffffffffffffffffffffffffffffffffff19166020820180517bffffffffffffffffffffffffffffffffffffffffffffffffffffffff83818316178352505050509050611a8386838684611dca565b925050509392505050565b6000611a986111b6565b90508073ffffffffffffffffffffffffffffffffffffffff1663a9059cbb84846040518363ffffffff1660e01b8152600401611ad5929190612a80565b602060405180830381600087803b158015611aef57600080fd5b505af1158015611b03573d6000803e3d6000fd5b505050506040513d601f19601f82011682018060405250810190611b279190612409565b611b66576040517f08c379a0000000000000000000000000000000000000000000000000000000008152600401611b5d90612cce565b60405180910390fd5b8273ffffffffffffffffffffffffffffffffffffffff167f55415116040ebe4bc0f2a8c28b2e7e3e8c494a5f4316854c949b548434d35f6583604051611bac9190612d0e565b60405180910390a2505050565b611bc16122b7565b6000602083611bd09190613255565b14611bfc57602082611be29190613255565b6020611bee9190613044565b82611bf99190612df2565b91505b81836020018181525050604051808452600081528281016020016040525082905092915050565b60178167ffffffffffffffff1611611c5a57611c548160058460ff16901b60ff161784611f6e90919063ffffffff16565b50611da3565b60ff8167ffffffffffffffff1611611cb057611c89601860058460ff16901b1784611f6e90919063ffffffff16565b50611caa8167ffffffffffffffff16600185611f8e9092919063ffffffff16565b50611da2565b61ffff8167ffffffffffffffff1611611d0757611ce0601960058460ff16901b1784611f6e90919063ffffffff16565b50611d018167ffffffffffffffff16600285611f8e9092919063ffffffff16565b50611da1565b63ffffffff8167ffffffffffffffff1611611d6057611d39601a60058460ff16901b1784611f6e90919063ffffffff16565b50611d5a8167ffffffffffffffff16600485611f8e9092919063ffffffff16565b50611da0565b611d7d601b60058460ff16901b1784611f6e90919063ffffffff16565b50611d9e8167ffffffffffffffff16600885611f8e9092919063ffffffff16565b505b5b5b5b505050565b611db06122b7565b611dc283846000015151848551611fb0565b905092915050565b60003084604051602001611ddf9291906129db565b604051602081830303815290604052805190602001209050846005600083815260200190815260200160002060006101000a81548173ffffffffffffffffffffffffffffffffffffffff021916908373ffffffffffffffffffffffffffffffffffffffff160217905550807fb5e6e01e79f91267dc17b4e6314d5d4d03593d2ceee0fbb452b750bd70ea5af960405160405180910390a2600260009054906101000a900473ffffffffffffffffffffffffffffffffffffffff1673ffffffffffffffffffffffffffffffffffffffff16634000aea08685856040518463ffffffff1660e01b8152600401611ed593929190612b2e565b602060405180830381600087803b158015611eef57600080fd5b505af1158015611f03573d6000803e3d6000fd5b505050506040513d601f19601f82011682018060405250810190611f279190612409565b611f66576040517f08c379a0000000000000000000000000000000000000000000000000000000008152600401611f5d90612c0e565b60405180910390fd5b949350505050565b611f766122b7565b611f86838460000151518461209f565b905092915050565b611f966122b7565b611fa78485600001515185856120f6565b90509392505050565b611fb86122b7565b8251821115611fc657600080fd5b84602001518285611fd79190612df2565b111561200c5761200b856002611ffc88602001518887611ff79190612df2565b612184565b6120069190612fea565b6121a0565b5b60008086518051876020830101935080888701111561202b5787860182525b60208701925050505b60208410612072578051825260208261204d9190612df2565b915060208161205c9190612df2565b905060208461206b9190613044565b9350612034565b60006001856020036101000a03905080198251168184511681811785525050508692505050949350505050565b6120a76122b7565b836020015183106120cd576120cc84600286602001516120c79190612fea565b6121a0565b5b83518051602085830101848153818614156120e9576001820183525b5050508390509392505050565b6120fe6122b7565b8460200151848361210f9190612df2565b11156121375761213685600286856121279190612df2565b6121319190612fea565b6121a0565b5b60006001836101006121499190612ecc565b6121539190613044565b905085518386820101858319825116178152815185880111156121765784870182525b505085915050949350505050565b6000818311156121965782905061219a565b8190505b92915050565b6000826000015190506121b38383611bb9565b506121be8382611da8565b50505050565b8280546121d09061317b565b90600052602060002090601f0160209004810192826121f25760008555612239565b82601f1061220b57805160ff1916838001178555612239565b82800160010185558215612239579182015b8281111561223857825182559160200191906001019061221d565b5b50905061224691906122d1565b5090565b6040518060a0016040528060008019168152602001600073ffffffffffffffffffffffffffffffffffffffff16815260200160007bffffffffffffffffffffffffffffffffffffffffffffffffffffffff19168152602001600081526020016122b16122b7565b81525090565b604051806040016040528060608152602001600081525090565b5b808211156122ea5760008160009055506001016122d2565b5090565b60006123016122fc84612d69565b612d44565b90508281526020810184848401111561231d5761231c613376565b5b612328848285613139565b509392505050565b60008135905061233f8161360b565b92915050565b60008151905061235481613622565b92915050565b60008135905061236981613639565b92915050565b600082601f83011261238457612383613371565b5b81356123948482602086016122ee565b91505092915050565b6000813590506123ac81613650565b92915050565b6000815190506123c181613650565b92915050565b6000813590506123d681613667565b92915050565b6000602082840312156123f2576123f1613380565b5b600061240084828501612330565b91505092915050565b60006020828403121561241f5761241e613380565b5b600061242d84828501612345565b91505092915050565b60006020828403121561244c5761244b613380565b5b600061245a8482850161235a565b91505092915050565b6000806040838503121561247a57612479613380565b5b60006124888582860161235a565b925050602083013567ffffffffffffffff8111156124a9576124a861337b565b5b6124b58582860161236f565b9150509250929050565b600080600080608085870312156124d9576124d8613380565b5b600085013567ffffffffffffffff8111156124f7576124f661337b565b5b6125038782880161236f565b945050602085013567ffffffffffffffff8111156125245761252361337b565b5b6125308782880161236f565b935050604085013567ffffffffffffffff8111156125515761255061337b565b5b61255d8782880161236f565b925050606085013567ffffffffffffffff81111561257e5761257d61337b565b5b61258a8782880161236f565b91505092959194509250565b6000602082840312156125ac576125ab613380565b5b60006125ba8482850161239d565b91505092915050565b6000602082840312156125d9576125d8613380565b5b60006125e7848285016123b2565b91505092915050565b6000806040838503121561260757612606613380565b5b6000612615858286016123c7565b92505060206126268582860161239d565b9150509250929050565b61263981613078565b82525050565b6126488161308a565b82525050565b61265781613096565b82525050565b612666816130a0565b82525050565b600061267782612daf565b6126818185612dc5565b9350612691818560208601613148565b61269a81613385565b840191505092915050565b6126b66126b182613103565b613227565b82525050565b60006126c782612dba565b6126d18185612dd6565b93506126e1818560208601613148565b6126ea81613385565b840191505092915050565b600061270082612dba565b61270a8185612de7565b935061271a818560208601613148565b80840191505092915050565b600081546127338161317b565b61273d8186612dd6565b94506001821660008114612758576001811461276a5761279d565b60ff198316865260208601935061279d565b61277385612d9a565b60005b8381101561279557815481890152600182019150602081019050612776565b808801955050505b50505092915050565b600081546127b38161317b565b6127bd8186612de7565b945060018216600081146127d857600181146127e95761281c565b60ff1983168652818601935061281c565b6127f285612d9a565b60005b83811015612814578154818901526001820191506020810190506127f5565b838801955050505b50505092915050565b6000612832600483612de7565b915061283d826133b0565b600482019050919050565b6000612855601683612dd6565b9150612860826133d9565b602082019050919050565b6000612878602383612dd6565b915061288382613402565b604082019050919050565b600061289b601683612dd6565b91506128a682613451565b602082019050919050565b60006128be603f83612dd6565b91506128c98261347a565b604082019050919050565b60006128e1601783612dd6565b91506128ec826134c9565b602082019050919050565b6000612904601783612dd6565b915061290f826134f2565b602082019050919050565b6000612927602883612dd6565b91506129328261351b565b604082019050919050565b600061294a601983612dd6565b91506129558261356a565b602082019050919050565b600061296d602483612dd6565b915061297882613593565b604082019050919050565b6000612990600883612de7565b915061299b826135e2565b600882019050919050565b6129af816130ec565b82525050565b6129c66129c1826130ec565b61324b565b82525050565b6129d5816130f6565b82525050565b60006129e782856126a5565b6014820191506129f782846129b5565b6020820191508190509392505050565b6000612a1382866126f5565b9150612a1e82612983565b9150612a2a82856126f5565b9150612a3582612825565b9150612a4182846126f5565b9150819050949350505050565b6000612a5a82846127a6565b915081905092915050565b6000602082019050612a7a6000830184612630565b92915050565b6000604082019050612a956000830185612630565b612aa260208301846129a6565b9392505050565b600061010082019050612abf600083018b612630565b612acc602083018a6129a6565b612ad9604083018961264e565b612ae66060830188612630565b612af3608083018761265d565b612b0060a08301866129a6565b612b0d60c08301856129a6565b81810360e0830152612b1f818461266c565b90509998505050505050505050565b6000606082019050612b436000830186612630565b612b5060208301856129a6565b8181036040830152612b62818461266c565b9050949350505050565b6000606082019050612b81600083018661263f565b8181036020830152612b938185612726565b90508181036040830152612ba78184612726565b9050949350505050565b6000602082019050612bc6600083018461264e565b92915050565b60006020820190508181036000830152612be681846126bc565b905092915050565b60006020820190508181036000830152612c0781612848565b9050919050565b60006020820190508181036000830152612c278161286b565b9050919050565b60006020820190508181036000830152612c478161288e565b9050919050565b60006020820190508181036000830152612c67816128b1565b9050919050565b60006020820190508181036000830152612c87816128d4565b9050919050565b60006020820190508181036000830152612ca7816128f7565b9050919050565b60006020820190508181036000830152612cc78161291a565b9050919050565b60006020820190508181036000830152612ce78161293d565b9050919050565b60006020820190508181036000830152612d0781612960565b9050919050565b6000602082019050612d2360008301846129a6565b92915050565b6000602082019050612d3e60008301846129cc565b92915050565b6000612d4e612d5f565b9050612d5a82826131ad565b919050565b6000604051905090565b600067ffffffffffffffff821115612d8457612d83613342565b5b612d8d82613385565b9050602081019050919050565b60008190508160005260206000209050919050565b600081519050919050565b600081519050919050565b600082825260208201905092915050565b600082825260208201905092915050565b600081905092915050565b6000612dfd826130ec565b9150612e08836130ec565b9250827fffffffffffffffffffffffffffffffffffffffffffffffffffffffffffffffff03821115612e3d57612e3c613286565b5b828201905092915050565b6000612e53826130ec565b9150612e5e836130ec565b925082612e6e57612e6d6132b5565b5b828204905092915050565b6000808291508390505b6001851115612ec357808604811115612e9f57612e9e613286565b5b6001851615612eae5780820291505b8081029050612ebc856133a3565b9450612e83565b94509492505050565b6000612ed7826130ec565b9150612ee2836130ec565b9250612f0f7fffffffffffffffffffffffffffffffffffffffffffffffffffffffffffffffff8484612f17565b905092915050565b600082612f275760019050612fe3565b81612f355760009050612fe3565b8160018114612f4b5760028114612f5557612f84565b6001915050612fe3565b60ff841115612f6757612f66613286565b5b8360020a915084821115612f7e57612f7d613286565b5b50612fe3565b5060208310610133831016604e8410600b8410161715612fb95782820a905083811115612fb457612fb3613286565b5b612fe3565b612fc68484846001612e79565b92509050818404811115612fdd57612fdc613286565b5b81810290505b9392505050565b6000612ff5826130ec565b9150613000836130ec565b9250817fffffffffffffffffffffffffffffffffffffffffffffffffffffffffffffffff048311821515161561303957613038613286565b5b828202905092915050565b600061304f826130ec565b915061305a836130ec565b92508282101561306d5761306c613286565b5b828203905092915050565b6000613083826130cc565b9050919050565b60008115159050919050565b6000819050919050565b60007fffffffff0000000000000000000000000000000000000000000000000000000082169050919050565b600073ffffffffffffffffffffffffffffffffffffffff82169050919050565b6000819050919050565b600060ff82169050919050565b600061310e82613115565b9050919050565b600061312082613127565b9050919050565b6000613132826130cc565b9050919050565b82818337600083830152505050565b60005b8381101561316657808201518184015260208101905061314b565b83811115613175576000848401525b50505050565b6000600282049050600182168061319357607f821691505b602082108114156131a7576131a66132e4565b5b50919050565b6131b682613385565b810181811067ffffffffffffffff821117156131d5576131d4613342565b5b80604052505050565b60006131e9826130ec565b91507fffffffffffffffffffffffffffffffffffffffffffffffffffffffffffffffff82141561321c5761321b613286565b5b600182019050919050565b600061323282613239565b9050919050565b600061324482613396565b9050919050565b6000819050919050565b6000613260826130ec565b915061326b836130ec565b92508261327b5761327a6132b5565b5b828206905092915050565b7f4e487b7100000000000000000000000000000000000000000000000000000000600052601160045260246000fd5b7f4e487b7100000000000000000000000000000000000000000000000000000000600052601260045260246000fd5b7f4e487b7100000000000000000000000000000000000000000000000000000000600052602260045260246000fd5b7f4e487b7100000000000000000000000000000000000000000000000000000000600052603260045260246000fd5b7f4e487b7100000000000000000000000000000000000000000000000000000000600052604160045260246000fd5b600080fd5b600080fd5b600080fd5b600080fd5b6000601f19601f8301169050919050565b60008160601b9050919050565b60008160011c9050919050565b7f2669643d00000000000000000000000000000000000000000000000000000000600082015250565b7f4d7573742062652070726f706f736564206f776e657200000000000000000000600082015250565b7f756e61626c6520746f207472616e73666572416e6443616c6c20746f206f726160008201527f636c650000000000000000000000000000000000000000000000000000000000602082015250565b7f4f6e6c792063616c6c61626c65206279206f776e657200000000000000000000600082015250565b7f496e76616c69642063686f6963652e20506c656173652063686f6f736520312060008201527f666f72204f7074696f6e2041206f72203220666f72204f7074696f6e20422e00602082015250565b7f556e61626c6520746f207472616e73666572204c494e4b000000000000000000600082015250565b7f43616e6e6f74207472616e7366657220746f2073656c66000000000000000000600082015250565b7f536f75726365206d75737420626520746865206f7261636c65206f662074686560008201527f2072657175657374000000000000000000000000000000000000000000000000602082015250565b7f556e61626c6520746f207472616e7366657220746f6b656e7300000000000000600082015250565b7f596f75206861766520616c72656164792073656c656374656420616e206f707460008201527f696f6e2e00000000000000000000000000000000000000000000000000000000602082015250565b7f3f6170696b65793d000000000000000000000000000000000000000000000000600082015250565b61361481613078565b811461361f57600080fd5b50565b61362b8161308a565b811461363657600080fd5b50565b61364281613096565b811461364d57600080fd5b50565b613659816130ec565b811461366457600080fd5b50565b613670816130f6565b811461367b57600080fd5b5056fea26469706673582212205bacc2ab92406d04236aeba0c99b87d01c40dedf4ed07cb9aa5635e74640eedc64736f6c63430008070033",
  "linkReferences": {},
  "deployedLinkReferences": {}
}